:020000040800F2
:10000000C0040020D9010008E1010008E301000854
:10001000E5010008E7010008E90100080000000010
:10002000000000000000000000000000EB010008DC
:10003000ED01000800000000EF010008B515000800
:10004000F3010008F3010008F3010008F3010008C0
:10005000F3010008F3010008F3010008F3010008B0
:10006000F3010008F3010008F3010008F3010008A0
:10007000F3010008F3010008F3010008F301000890
:10008000F3010008F3010008F3010008F301000880
:10009000F3010008F3010008F3010008F301000870
:1000A000F3010008F3010008F3010008F301000860
:1000B000F3010008F3010008F3010008F301000850
:1000C000F3010008F3010008F3010008F301000840
:1000D000B9110008F3010008F3010008F30100085A
:1000E0000D030008F3010008F3010008F301000804
:1000F000F3010008F3010008F3010008F301000810
:10010000F3010008F3010008F3010008F3010008FF
:10011000F3010008F3010008F3010008F3010008EF
:10012000F3010008F3010008F3010008F3010008DF
:10013000F30100080000000000000000F3010008C7
:10014000F3010008F3010008F3010008F3010008BF
:10015000F3010008F3010008F3010008F3010008AF
:10016000F3010008F3010008F3010008F30100089F
:10017000F3010008F3010008F3010008000000008B
:1001800000000000F3010008000000000000000073
:10019000F30100080000000000000000F301000867
:1001A000000000000000000000000000F301000853
:1001B000F3010008F3010008F3010008F30100084F
:1001C000F3010008DFF80CD000F07AF8004800478F
:1001D000C5170008C00400200648804706480047AD
:1001E000FEE7FEE7FEE7FEE7FEE7FEE7FEE7FEE7E7
:1001F000FEE7FEE741160008C50100082DE9F05FA3
:100200000546002092469B46884606468146402485
:100210001BE0284641464746224600F041F8534637
:100220005A46C01A914110D311461846224600F092
:1002300028F82D1A67EB01084F46224601200021BD
:1002400000F01FF817EB00094E41201EA4F1010435
:10025000DFDC484631462A464346BDE8F09FD2B22D
:1002600001E000F8012B491EFBD270470022F6E79F
:1002700010B513460A4604461946FFF7F0FF20461C
:1002800010BD202A04DB203A00FA02F1002070475A
:100290009140C2F1200320FA03F3194390407047C4
:1002A000202A04DB203A21FA02F00021704721FACB
:1002B00002F3D040C2F12002914008431946704732
:1002C000064C074D06E0E06840F0010394E80700A3
:1002D00098471034AC42F6D3FFF778FF881900082E
:1002E000A819000870B50024234606E0C55CCE5C62
:1002F000B54201D1641CE4B25B1C9342F6D3042CDA
:1003000001D0002070BD012070BD000010B54FF479
:10031000005000F02DF802490120087010BD0000C7
:100320000000002090F83510022903D0802141659B
:1003300001207047052180F835100068016821F020
:10034000010101600020704770B5044600F0FCF820
:100350000546601C02D004480078044400F0F4F81C
:10036000401BA042FAD370BD180000207047000067
:10037000044910B50A68024202D00860FFF7F6FF90
:1003800010BD0000143C01402DE9F84F00224FF051
:10039000010803254FF00F0E0B6808FA02F4234002
:1003A000A3426ED14E68012E05D0022E03D0112E2D
:1003B00001D0122E12D186684FEA420C05FA0CF7D2
:1003C000BE43CF6807FA0CF7374387604668A643F9
:1003D0000C79C4F30014944034434460C668570059
:1003E00005FA07FC8C6826EA0C06BC403443C4605E
:1003F0004C68022C01D0122C13D1D40800EB8404D9
:10040000A346D4F8209054074FEAD46A0EFA0AF6AD
:1004100029EA06090E6906FA0AF646EA0906CBF841
:10042000206006680C7926EA0C0604F00304BC4040
:10043000344304604C68E40060D5334C266846F4CD
:1004400080462660246822F0030604F48044009469
:100450002E4C3444A446D4F808489607370F0EFAB9
:1004600007F6B4432A4EB04201D100261FE0294EC0
:10047000B04201D101261AE0274EB04202D1022635
:1004800015E03BE0254EB04201D103260FE0244E9B
:10049000B04201D104260AE0224EB04201D1052625
:1004A00005E0214EB04201D1062600E00726BE40FD
:1004B0002643CCF808681D4E34684F689C43FF0300
:1004C00000D51C433460194E361D34684F689C4378
:1004D000BF0300D51C433460144E083634684F689F
:1004E0009C43FF0200D51C433460104E0C36346828
:1004F0004F689C43BF0200D51C433460521C102A35
:10050000FFF44AAFBDE8F88F4438024000300140A4
:10051000000002400004024000080240000C0240BB
:10052000001002400014024000180240003C01404C
:10053000426931EA020200D10904816170470AB1BF
:10054000816170470904FBE701488068704700003B
:1005500018000020024881680278114481607047C9
:10056000180000200B4810B5016841F400710160CB
:10057000016841F480610160016841F480710160AB
:10058000032000F071F8002000F006F800F024F8D5
:10059000002010BD003C024070B50D4D04464FF4E4
:1005A0007A712878B1FBF0F00A490968B1FBF0F0E4
:1005B00000F018FD48B9102C07D200222146501E29
:1005C00000F032F800206C6070BD012070BD0000AA
:1005D00018000020240000200B4882B0016841F47C
:1005E00080410160006800F4804000900648001FD0
:1005F000016841F080510160006800F08050009077
:10060000072002B000F030B844380240002809DB6F
:1006100000F01F02012191404009800000F1E0201C
:10062000C0F8001170470000F0B40E4B1B680C4678
:10063000C3F30223C3F10705042D00D90425191DB6
:10064000072901D2002300E0DB1E012606FA05F18E
:10065000491E214099409E40761E16403143F0BC11
:1006600001F090B80CED00E0064900F007020868C0
:100670004FF6FF03184040EA0220034A1043086087
:10068000704700000CED00E00000FA052DE9F0478E
:100690000E46050065D0DFF81481D8F80000F7B2E7
:1006A00000F00F00B04207D288F80070D8F80000C0
:1006B00000F00F00B04254D128683D4C810712D59C
:1006C000400703D5206840F4E050206028780007F8
:1006D00003D5206840F4604020602068A96820F0BD
:1006E000F000084320602878C0072DD030496868A2
:1006F0000839012812D0022813D0032811D0096824
:10070000890700292DDA216821F0030101432160C6
:10071000FFF71AFF814641F2883A0EE00968890323
:10072000EFE709688901ECE7FFF70EFFA0EB09018D
:10073000514502D90320BDE8F0872068696800F0C0
:100740000C00B0EB810FEFD1D8F80010404601F05B
:100750000F01B14207D90770006800F00F00B042E6
:1007600001D00120E7E72878400705D52068E9682F
:1007700020F4E050084320602878000706D5206860
:10078000296920F4604040EAC100206000F038F898
:100790002168084AC1F30311515CC840064908604A
:1007A00006480068FFF7F8FE0020C4E7003C02405E
:1007B0000838024070190008240000201C000020A6
:1007C0000448054900680968044AC1F38221515C64
:1007D000C8407047240000200838024080190008F3
:1007E0000448054900680968044AC1F34231515C74
:1007F000C8407047240000200838024080190008D3
:10080000224810B5006810F00C02214815D04110A4
:10081000042A11D01D4C241F082A0FD00C2A0CD1F9
:100820002268236802F03F025B0221D52068C0F3F2
:100830008810A0FB010120E0084610BD2268236853
:1008400002F03F025B0205D52068C0F38810A0FBD0
:10085000010104E02168C1F38811A1FB000100231C
:10086000FFF7CCFC2168C1F30141491C49000AE0B3
:100870002168C1F38811A1FB00010023FFF7BEFC32
:100880002168C1F30271B0FBF1F010BD08380240DD
:100890000024F4002DE9F84F0546DFF828B300786E
:1008A000ABF10407C007A7F1040451D0DBF8001036
:1008B0005846C1F3810101290FD00168C1F38101BC
:1008C000022902D13968490207D40068C0F38100C7
:1008D000032809D13868400206D52068800337D53F
:1008E0006868002872D033E06868B0F5803F10D0A7
:1008F000B0F5A02F206810D020F480302060206850
:1009000020F4802020606868A8B1FFF71DFE06462D
:100910000DE0206840F48030F4E740F4802020604F
:10092000F7E700BFFFF710FE801B642878D8206827
:100930008003F7D50CE0FFF707FE064605E000BF91
:10094000FFF702FE801B6428F0D820688003F7D4EC
:100950002878DFF8749280074FF0000A46D5DBF85C
:100960000010584611F00C0F0FD00168C1F381013F
:10097000022902D13968490207D50068C0F3810015
:10098000032809D13868400206D42068800715D5AD
:10099000E86801281AD111E0E868C0B10120C9F85F
:1009A0000000FFF7D1FD064605E000BFFFF7CCFDD4
:1009B000801B0228BAD820688007F7D520682969EB
:1009C00020F0F80040EAC10020600FE0F7E0C9F82D
:1009D00000A0FFF7B9FD064605E000BFFFF7B4FD34
:1009E000801B02281CD820688007F7D428780007CD
:1009F00027D5DFF8D0817548696908F16C0881B1A5
:100A000001210160FFF7A0FD064604E0FFF79CFD11
:100A1000801B022804D8D8F800008007F6D510E023
:100A200089E0C0F800A0FFF78FFD064605E000BF93
:100A3000FFF78AFD801B02287DD8D8F800008007C8
:100A4000F6D42878400769D55E484FF00008383062
:100A50000068C0000BD45B483830016841F0805119
:100A6000016000684FF0010800F080500090584E7F
:100A70003068C00511D4306840F480703060FFF7F2
:100A800063FD009006E000BFFFF75EFD0099401A8D
:100A9000022850D83068C005F6D54A4EA868683696
:100AA00001280FD00528306810D020F001003060F8
:100AB000306820F004003060A868B8B1FFF744FD4A
:100AC00000900FE0306840F00100F4E740F00400CF
:100AD0003060F7E7FFF738FD0099411A41F288309E
:100AE000814264D830688007F4D50EE0FFF72CFD12
:100AF000009007E0FFF728FD0099411A41F2883085
:100B0000814254D830688007F4D4B8F1000F05D082
:100B10002C483830016821F080510160A869A8B3E1
:100B2000DBF80010C1F38101022948D00228C9F87E
:100B300060A005D000E03AE0FFF706FD054639E089
:100B4000FFF702FD064604E0FFF7FEFC801B0228CB
:100B50002DD820688001F7D4F5E907010843E9683A
:100B60001C4A490802EB0141AA6841EA8211084384
:100B7000297C40EA0160297D40EA0170386001204B
:100B8000C9F86000FFF7E0FC054606E015E000BF8D
:100B9000FFF7DAFC401B022809D820688001F7D54E
:100BA0000BE000BFFFF7D0FC401B022802D9032056
:100BB000BDE8F88F20688001F4D40020F8E7012018
:100BC000F6E700000838024000004742800E474226
:100BD000007000400000FFFF7047000038B501685A
:100BE00004464A688868C043430606D5C30704D153
:100BF000D3435B0601D4216C05E0830708D4D343BB
:100C00001B0605D4616C01B02046BDE830400847A2
:100C1000830603D5430601D5C30551D4D3439B06B0
:100C20004ED443060AD494F85130032B49D0636D57
:100C300043F004036365CB688B680093830609D493
:100C4000636D43F0010363658B6800930B6823F0C9
:100C500040030B60C00506D4606D40F0080060657D
:100C6000206880680090606D002829D02068416865
:100C700021F0E0014160012084F85100900701D487
:100C8000D00722D02068416821F003014160114D56
:100C9000E06C40B10565E06CFFF744FB18B1606D96
:100CA00040F040006065A06C002809D00565A06C8C
:100CB000FFF738FB002803D0606D40F0400060650E
:100CC00038BDC8688868009038BD2046FFF784FFAB
:100CD00038BD0000DD13000870B5040005D0002504
:100CE000A56294F8510010B106E0012070BD84F8AF
:100CF0005050204600F030F8022084F8510020685F
:100D0000016821F040010160D4E901010843D4E900
:100D100003121143084361690843218B01F40071F8
:100D20000843E1690843216A0843A16A084321682E
:100D30000860A069042101EA1040616A0843216843
:100D400048602068C16921F40061C16165650120C6
:100D500084F85100002070BD2DE9F04186B00446B2
:100D600014216846FFF782FA23492068884240D15F
:100D700022480025016841F480410160006800F4C8
:100D8000804005901D481038016841F00401016061
:100D9000016801F004010591016841F00201016060
:100DA0000068022400F0020000940590032607204A
:100DB000CDE90360DFF8488069464046CDE901454A
:100DC000FFF7E2FA042005278DE8F1006946404666
:100DD000FFF7DAFA60028DE8F10069460948FFF78B
:100DE000D3FA002211462420FFF71EFC2420FFF72F
:100DF0000DFC06B0BDE8F0810038004040380240EC
:100E00000008024000040240F0B400248568134644
:100E100004261DB94268B2F5827F0DD090F85020AB
:100E2000012A0FD0012280F8502090F85170002242
:100E3000012F0AD0022431E080F85160F0BC0A464C
:100E400000F036B80220F0BC704771B16BB180F889
:100E50005160426581638387C38702638286C2864D
:100E60004264C16819B10F4902E0012416E00E493D
:100E70000164B5F5004F04D101680B6823F4804389
:100E80000B6001684B6843F060034B6001680B68BE
:100E90005B0603D40B6843F040030B6080F85020DE
:100EA0002046D0E7A1140008C114000870470000D4
:100EB000F0B590F850500024012D0CD0012580F899
:100EC000505090F8515000264768012D0BD0B7F5CF
:100ED000827F06D101E00220F0BD87680FB9042DA2
:100EE00001D0022429E0A9B1A2B19BB190F85150E0
:100EF000042D02D0052580F8515046650163838694
:100F0000C38682638387C387C16829B10D490164A1
:100F10000D4904E0012410E00C4901640C494164CE
:100F200001684A6842F0E0024A6001680A685206B5
:100F300003D40A6842F040020A6080F850602046FC
:100F4000F0BD0000C511000825120008F5110008C9
:100F50005512000830B590F850300024012B0BD00A
:100F6000012380F85030002341B13AB190F851503C
:100F7000012D05D002242AE0022030BD012426E004
:100F8000032580F85150436501638286C2868363DE
:100F90008387C3870364C16809B10F4900E00F4923
:100FA00041648168B1F5004F04D101680A6842F4D8
:100FB00080420A6001684A6842F0A0024A60016803
:100FC0000A68520603D40A6842F040020A6080F8B8
:100FD0005030204630BD0000E11400080115000823
:100FE0007047704710B5401EB0F1807F01D30120DB
:100FF00010BD4FF0E02460610F21601700F0C2FBCC
:101000000020A06107202061002010BD70B5040001
:1010100004D094F83900002510B106E0012070BD1D
:1010200084F83850204600F023F8242084F8390052
:101030002068C16821F40051C160204600F00EFB19
:101040002068016921F4904101612068416921F023
:101050002A0141612068C16841F40051C160E56323
:10106000202084F8390084F83A00002070BD000088
:1010700010B586B0044614216846FFF7F7F8134907
:101080002068884220D11248016841F40031016093
:10109000006800F4003005900D481038016841F0F8
:1010A000010101600068694600F0010005900C2014
:1010B000009002200190012002900320039007205D
:1010C00004900448FFF760F906B010BD00440040EA
:1010D000403802400000024070B586B014216846D6
:1010E000FFF7C4F823480024016841F004010160BF
:1010F000016801F004010591016841F0800101607F
:10110000016801F080010591016841F00101016071
:10111000016801F001010591016841F002010160DF
:101120000068154E00F002004FF48C650590002217
:1011300029463046FFF703FA4FF4005000900F485D
:10114000CDE9010469460E48FFF71EF9012000951C
:10115000CDE90104694630460394FFF715F90022F2
:1011600011462820FFF760FA2820FFF74FFA06B053
:1011700070BD000030380240000002400000211025
:10118000000802400B480A49012201604FF48271B5
:10119000416000218160C160C0E904125202C0E9CF
:1011A00006210162416281620A21C162FFF794BD9A
:1011B00000380040280000200148FFF70FBD000064
:1011C000280000200168C968826B1180816B891C2E
:1011D0008163C18F491EC187C18F002909D1016870
:1011E0004A6822F040024A60C18E002901D100F015
:1011F00049B870470168097B826B1170816B491C8B
:101200008163C18F491EC187C18F002909D101683F
:101210004A6822F060024A60C18E002901D100F0C4
:1012200031B87047016B02680988D160016B891C75
:101230000163C18E491EC186C18E002909D1016892
:101240004A6822F080024A60C18F002901D100F073
:1012500019B87047016B026809781173016B491C5A
:101260000163C18E491EC186C18E002909D1016862
:101270004A6822F080024A60C18F002901D100F043
:1012800001B8704738B50446214845F6C05100689A
:10129000B0FBF1F0642148430090FFF755F9024696
:1012A0002068416821F020014160009888B1401E0B
:1012B0000090206880688007F7D56421204600F000
:1012C000C3F818B1606D40F020006065A06828B1D7
:1012D00008E0606D40F020006065EEE72068C168BE
:1012E00080680090616D012029B184F8510020468A
:1012F000FFF772FC38BD94F8511084F851000429AE
:10130000204602D0FFF76DFE38BDFFF7CFFD38BD98
:101310002400002038B504460068416821F06001CF
:101320004160FFF711F902466421204600F05EF8A3
:1013300018B1606D40F020006065A06818B92068A1
:10134000C16880680090012084F85100606D002819
:10135000204602D0FFF740FC38BDFFF7A7FD38BD9F
:1013600038B504461C4845F6C0510068B0FBF1F0A2
:10137000642148430090FFF7E7F80246206800998F
:10138000A1B1491E009181688907F8D5416821F013
:10139000A00141606421204600F056F818B1606D4C
:1013A00040F020006065A06828B108E0616D41F060
:1013B00020016165EAE72068C1688068009001202B
:1013C00084F85100606D0028204602D0FFF704FC2D
:1013D00038BDFFF705FE38BD2400002010B5806B36
:1013E0000021C187C186FFF7F7FB10BDF8B50446A1
:1013F00040684FF48273984221D1A0684FF4806511
:10140000B0F5004F01D0A8420AD12068066826F046
:10141000400606606068984211D1A068A8420ED0CC
:1014200000920B4600228021204600F079F8002827
:1014300004D0606D40F0200060650320F8BD00928C
:101440000B4600220121EFE738B504461248134B42
:101450000068B0FBF3F04FF47A7358430090606873
:10146000B0F5827F0DD10B460092002280212046EC
:1014700000F056F870B1606D40F020006065032008
:1014800038BD009830B1401E009020688068C0438D
:101490000006F6D5002038BD2400002000366E017D
:1014A0000168C968826B1180816B891C8163C18F5F
:1014B000491EC187C18F002901D1FFF72BBF70479B
:1014C0000168097B826B1170816B491C8163C18F3C
:1014D000491EC187C18F002901D1FFF71BBF70478B
:1014E000016B02680988D160016B891C0163C18EA0
:1014F000491EC186C18E002901D1FFF731BF704757
:10150000016B026809781173016B491C0163C18E7C
:10151000491EC186C18E002901D1FFF721BF704746
:101520002DE9F0411D4617460E460446DDF81880A9
:1015300008E0681C06D0FFF707F8A0EB0800A842F7
:101540000BD255B12068806836EA000030D0002008
:10155000B842EED10020BDE8F0812068416821F05A
:10156000E00141606068B0F5827F0BD1A068B0F502
:10157000004F02D0B0F5806F04D12068016821F0DF
:1015800040010160A06AB0F5005F09D120680168E0
:1015900021F4005101602068016841F400510160AC
:1015A000012084F85100002084F850000320D2E785
:1015B0000120CDE7FEF7CEBF30B593B034216846A9
:1015C000FEF754FE14210DA8FEF750FE1A48002520
:1015D000016841F080510160006800F08050129075
:1015E0001648016821F4404141F4804101600068DF
:1015F000022400F440401290012003901020009437
:1016000006940490CDE907504FF4A8700990042087
:10161000CDE90A0468460C94FFF73CF90DA90F20A8
:1016200081E83100E002CDE9100502210DA8FFF7A5
:101630002DF813B030BD000040380240007000406B
:101640000548016841F47001016003494FF00060F2
:10165000803908607047000088ED00E02DE9F04116
:10166000044600680169E26821F4405111430161B8
:101670002169A068E2690843616911430843216850
:10168000CA6849F20C639A430243CA602068416900
:10169000A26921F4407111434161E0691927642571
:1016A0003226B0F5004F354A354920684FF0000822
:1016B00006D0884201D0904236D1FFF791F835E04C
:1016C000884201D0904202D1FFF78AF801E0FFF78B
:1016D00077F861684A18A0FB070148EB0803FEF79A
:1016E0008DFD0146B0FBF5F00201B1FBF5F06FF0A6
:1016F0001803584301EB800006EBC000B0FBF5F087
:1017000000F0F80002EB4002B1FBF5F0584301EBAA
:10171000800006EBC000B0FBF5F000F00700216888
:1017200010448860BDE8F081FFF74AF861688B0FCC
:101730008A00A0FB0701FEF761FD0146B0FBF5F052
:101740006FF01802504301EB800006EB0010B0FB75
:10175000F5F000F0F002B1FBF5F002EB0012B1FB86
:10176000F5F06FF01803584301EB800006EB001012
:10177000B0FBF5F000F00F00D1E7000000140140CD
:10178000001001400907090E002804DB00F1E020E9
:1017900080F80014704700F00F0000F1E02080F89E
:1017A000141D704702E008C8121F08C1002AFAD1B0
:1017B00070477047002001E001C1121F002AFBD1D1
:1017C00070470000FEF7CEFEFFF7F6FEFFF784FC41
:1017D000FFF7D8FC63486249002601604FF4E1310D
:1017E000C0E901160C21C660C0E904618661C661CA
:1017F000FFF70CFC5C4F5B4CA7F10A054FF48069C6
:10180000583CDFF8688106E020214046FEF790FE54
:101810006420FEF799FD28780128F5D194F851004D
:101820000128FBD150496888091F02220870000A6C
:1018300048704C485838FFF78DFB00BF94F85100B2
:101840000128FBD16420FEF77FFD4648022246496D
:101850005838FFF7D9FA00BF94F851000128FBD19E
:101860003878D52802D17878E5280BD04FF4FA647F
:10187000474620213846FEF75BFE2046FEF764FD12
:101880006E81F6E7012249464046FEF758FE36498A
:1018900034486E810422891C5838FFF75BFB00BF77
:1018A00094F851000128FBD16420FEF74DFD2E492C
:1018B000A888891E02220870000A487029485838F2
:1018C000FFF748FB94F851000128FBD16420FEF794
:1018D0003BFD2448022224495838FFF795FA00BFFF
:1018E00094F851000128FBD13878E52802D17878A6
:1018F000D5280AD04F46444639462046FEF718FE02
:101900006420FEF721FD6E81F6E70122494640463C
:10191000FEF715FE4FF44870FEF716FD1249114808
:101920006E8104220A315838FFF76EFA94F851009C
:101930000128FBD10C490422891D081DFEF7D2FCA9
:1019400020B140214046FEF7F3FD04E00122402192
:101950004046FEF7F4FD6420FEF7F6FC5EE700006B
:1019600000440040800000200A00002000000240E7
:10197000000000000000000001020304060708093F
:101980000000000001020304A81900080000002064
:1019900028000000A4170008D01900082800002023
:1019A00098040000B41700080000B1AAB2AA000011
:1019B00000000000A1A2A3A4B1B2B3B400000000D3
:1019C0000100000010000000000000000024F400EE
:04000005080001C529
:00000001FF
