:020000040800F2
:1000000078040020D9010008291700087911000898
:1000100025170008D1040008F91B000800000000A3
:100020000000000000000000000000002D17000884
:10003000D5040008000000002B1700082F17000847
:10004000F3010008F3010008F3010008F3010008C0
:10005000F3010008F3010008F3010008F3010008B0
:10006000F3010008F3010008F3010008F3010008A0
:10007000F3010008F3010008F3010008F301000890
:10008000F3010008F3010008F3010008F301000880
:10009000F3010008F3010008F3010008F301000870
:1000A000F3010008F3010008F3010008F301000860
:1000B000F3010008F3010008F3010008F301000850
:1000C000F3010008F3010008F3010008F301000840
:1000D000F3010008F3010008F3010008F301000830
:1000E000F3010008F3010008F3010008F301000820
:1000F000F3010008F3010008F3010008F301000810
:10010000F3010008F3010008F3010008F3010008FF
:10011000F3010008F3010008F3010008F3010008EF
:10012000F3010008F3010008F3010008F3010008DF
:10013000F30100080000000000000000F3010008C7
:10014000F3010008F3010008F3010008F3010008BF
:10015000F3010008F3010008F3010008F3010008AF
:10016000F3010008F3010008F3010008F30100089F
:10017000F3010008F3010008F3010008000000008B
:1001800000000000F3010008000000000000000073
:10019000F30100080000000000000000F301000867
:1001A000000000000000000000000000F301000853
:1001B000F3010008F3010008F3010008F30100084F
:1001C000F3010008DFF80CD000F070F90048004798
:1001D000551C000878040020064880470648004760
:1001E000FEE7FEE7FEE7FEE7FEE7FEE7FEE7FEE7E7
:1001F000FEE7FEE7F5170008C50100082DE9F05FEE
:100200000546002092469B46884606468146402485
:100210001BE0284641464746224600F0D9F853469F
:100220005A46C01A914110D311461846224600F092
:10023000C0F82D1A67EB01084F4622460120002125
:1002400000F0B7F817EB00094E41201EA4F101049D
:10025000DFDC484631462A464346BDE8F09FD2B22D
:1002600001E000F8012B491EFBD270470022F6E79F
:1002700010B513460A4604461946FFF7F0FF20461C
:1002800010BD2DE9FE4F81EA030404F0004421F083
:10029000004100944FF0000B23F0004350EA0104AA
:1002A0005ED052EA03045BD0C3F30A54C1F30A558B
:1002B0002C44A4F2F3340194A0FB0254C1F31301C3
:1002C00041F48011C3F3130343F4801301FB024490
:1002D00000FB034E840A970A44EA815447EA835795
:1002E000A4FB076802958D0A05FB07854FEA932C4E
:1002F00004FB0C542705029D4FEA065847EA1637BF
:10030000B5EB08056EEB070C870E920E47EA8117D6
:1003100042EA8312A7FB0201B6EB0B0164EB000477
:100320002B0D43EA0C335E1844EB1C50DA46514661
:10033000E7FB0201C5F313044FEA0B3343EA1453FE
:100340004FEA0432019C43EA0603A4F10C04029430
:10035000009CCDE900B400F05AF803B0BDE8F08F7E
:1003600000200146F9E70EB540F233410291002129
:10037000CDE900110A460B4600F049F803B000BD74
:10038000C1F30A5210B5C1F3130140F2FF3341F437
:1003900080119A4201DA002010BD40F233439A42A4
:1003A000A2F2334203DC524200F012F810BD90403A
:1003B00010BD202A04DB203A00FA02F10020704729
:1003C0009140C2F1200320FA03F319439040704793
:1003D000202A04DB203A21FA02F00021704721FA9A
:1003E00002F3D040C2F12002914008431946704701
:1003F00010B5141E73F1000408DA401C41F100012D
:1004000092185B411A4301D120F0010010BD2DE983
:10041000F04D92469B4611B1B1FA81F202E0B0FA7A
:1004200080F220329046FFF7C4FF04460F4640EAB0
:100430000A0041EA0B0153465A46084313D01146BD
:1004400053EA010019D0C8F140025046FFF7C0FF3F
:1004500005460E46504659464246FFF7AAFF084356
:1004600005D0012004E020463946BDE8F08D00208B
:10047000054346EAE0762C4337430A986305E40ACD
:10048000A0EB08000022FD0A44EA47540A3002D5D6
:1004900000200146E9E7010510196941DDE9084539
:1004A00000196941BDE8F04DA2E70000064C074D78
:1004B00006E0E06840F0010394E807009847103434
:1004C000AC42F6D3FFF782FEC81C0008E81C000807
:1004D00000BFFEE77047704770B5044600F00EF9A4
:1004E00006462546681C10B104480078054400BF44
:1004F00000F004F9801BA842FAD370BD3000002040
:10050000F8B502460B460025002400200021D7E064
:10051000012606FA01F51E6806EA0504AC4273D10D
:100520005E68012E08D05E68022E05D05E68112E2E
:1005300002D05E68122E13D190684F000326BE4091
:10054000B0434F00DE68BE403043906050680126E3
:100550008E40B0431E79C6F300168E403043506083
:10056000D0684F000326BE40B0434F009E68BE4097
:100570003043D0605E68022E02D05E68122E13D126
:10058000CF0802F1200656F827004E07F70E0F2677
:10059000BE40B0434F07FF0E1E69BE403043CF0838
:1005A00002F1200646F8270010684F000326BE40DF
:1005B000B0431E7906F003064F00BE403043106082
:1005C0005E6806F08056B6F1805F78D100BF0026E5
:1005D00000963D4E366846F480463B4F3E603E46B0
:1005E000366806F48046009600BF00BF374E8F087D
:1005F00056F827008E07370F0F26BE40B043344E03
:10060000B24202D100261FE059E0324EB24201D17F
:10061000012619E0304EB24201D1022614E02F4EDD
:10062000B24201D103260FE02D4EB24201D1042681
:100630000AE02C4EB24201D1052605E02A4EB24214
:1006400001D1062600E007268F073F0FBE4030434A
:100650001E4E8F0846F82700244E3068A0435E687F
:1006600006F48036B6F5803F00D120431F4E30603F
:10067000361D3068A0435E6806F40036B6F5003FCC
:1006800000D12043194E361D3060361D3068A0431E
:100690005E6806F48016B6F5801F00D12043134E25
:1006A00008363060361D3068A0435E6806F40016D8
:1006B000B6F5001F00D120430C4E0C363060491CAB
:1006C0001029FFF425AFF8BD443802400838014036
:1006D000000002400004024000080240000C0240FA
:1006E000001002400014024000180240003C01408B
:1006F0000AB1816101E00B04836170470148006821
:10070000704700002800002003480068034909786A
:10071000084401490860704728000020300000208C
:1007200010B50D48006840F400700B490860084699
:10073000006840F4806008600846006840F48070FB
:100740000860032000F096F8002000F007F800F0A1
:100750002BF8002010BD0000003C024070B504469C
:100760000E4800784FF47A71B1FBF0F00C4909683B
:10077000B1FBF0F5284600F067FC08B1012070BD20
:10078000102C07D200222146501E00F035F80548F3
:10079000046001E00120F2E70020F0E730000020D3
:1007A000340000202C00002008B500BF002000907D
:1007B0001048006840F480400E4908600846006810
:1007C00000F48040009000BF00BF00BF00200090F8
:1007D000081F006840F08050091F08600846006844
:1007E00000F08050009000BF00BF072000F042F8EA
:1007F00008BD0000443802402DE9F05F80460D46F8
:100800001646002701F0FAF9074639462A463346CC
:1008100001F00700C0F1070ABAF1040F02D94FF046
:10082000040A01E0C0F1070AD14600F1040ABAF156
:10083000070F02D24FF0000A01E0A0F1030AD446EC
:100840004FF0010A0AFA09FAAAF1010A0AEA020AB1
:100850000AFA0CFA4FF0010B0BFA0CFBABF1010B8F
:100860000BEA030B4AEA0B042146404601F0CEF99D
:10087000BDE8F09F00BF00F00702064B19684FF675
:10088000FF031940044B0B4343EA0221014B19605B
:1008900000BF70470CED00E00000FA0570B504469B
:1008A0000D460CB9012070BD5848006800F00F00DB
:1008B000A84209D255490D700846006800F00F00A3
:1008C000A84201D00120EEE7207800F002000228C3
:1008D0001DD1207800F00400042805D14C480068A0
:1008E00040F4E0504A490860207800F008000828E9
:1008F00005D14748006840F46040454908604448D5
:10090000006820F0F000A1680843414908602078A1
:1009100000F00100A8B36068012807D13C480838FE
:100920000068C0F34040B8B90120BCE76068022805
:1009300002D06068032807D1354808380068C0F342
:10094000406048B90120AEE7314808380068C0F37C
:10095000400008B90120A6E72D48006820F00300F8
:10096000616808432A490860FFF7C8FE064609E0A7
:10097000FFF7C4FE801B41F28831884202D9032070
:1009800091E707E02248006800F00C006168B0EBD6
:10099000810FEDD11D48006800F00F00A84209D971
:1009A0001A490D700846006800F00F00A84201D0F7
:1009B000012078E7207800F00400042807D11448CB
:1009C000006820F4E050E16808431149086020788D
:1009D00000F00800082808D10D48006820F46040A5
:1009E000216940EAC1000A49086000F061F808493D
:1009F0000968C1F30311074A515CC8400649086001
:100A000006480068FFF7AAFE00204CE7003C0240C1
:100A100008380240B01C0008340000202C000020E0
:100A20000F2202600D4A126802F0030242600B4A74
:100A3000126802F0F0028260084A126802F4E05282
:100A4000C260064A126802F46042D2080261044A97
:100A5000126802F00F020A60704700000838024076
:100A6000003C02400148006870470000340000204C
:100A700000B5FFF7F7FF04490968C1F38221034A73
:100A8000515CC84000BD000008380240C01C00088E
:100A900000B5FFF7E7FF04490968C1F34231034A93
:100AA000515CC84000BD000008380240C01C00086E
:100AB0002DE9F047002400250026A146A2463F4824
:100AC000006800F00C0030B1042807D0082808D0D6
:100AD0000C286BD138E0DFF8E8A06AE0DFF8E4A08A
:100AE00067E03648001F006800F03F043348001FED
:100AF000006800F4800078B132483049091F096865
:100B0000C1F38811A0FB017001462246002338463C
:100B1000FFF774FB05460DE029482849091F0968BD
:100B2000C1F38811A0FB0171224600233846FFF76C
:100B300065FB05462148001F0068C0F30140401CCA
:100B40004600B5FBF6FA34E01C48001F006800F0D0
:100B50003F041A48001F006800F4800078B119486B
:100B60001649091F0968C1F38811A0FB01700146ED
:100B7000224600233846FFF741FB05460EE01048A9
:100B80000E49091F0968C1F38811A0FB01700146D5
:100B9000224600233846FFF731FB05460748001F71
:100BA0000068C0F30279B5FBF9FA02E0DFF810A0A3
:100BB00000BF00BF5046BDE8F08700000838024083
:100BC0000024F40000127A00F8B5044600252078CD
:100BD00000F0010000286FD0FD48006800F00C0014
:100BE00004281BD0FA48006800F00C00082807D140
:100BF000F748001F006800F48000B0F5800F0DD0AA
:100C0000F348006800F00C000C2813D1F048001FD6
:100C1000006800F48000B0F5800F0BD1EC48083874
:100C20000068C0F34040002859D06068002856D1C1
:100C30000120F8BD00BF6068B0F5803F08D1E448EE
:100C40000838006840F48030E149083908601EE047
:100C50006068B0F5A02F0DD1DD480838006840F479
:100C60008020DB49083908600846006840F480307D
:100C700008600CE0D6480838006820F48030D44979
:100C8000083908600846006820F48020086000BF2A
:100C9000606890B1FFF732FD054606E0FFF72EFDD4
:100CA000401B642801D90320C3E7C94808380068FD
:100CB000C0F340400028F1D011E0FFF71FFD0546CA
:100CC00006E0FFF71BFD401B642801D90320B0E7B5
:100CD000BF4808380068C0F340400028F1D12078B0
:100CE00000F0020002286BD1B948006800F00C0047
:100CF000B8B1B748006800F00C00082805D1B44826
:100D0000001F006800F4800058B1B148006800F08E
:100D10000C000C281CD1AE48001F006800F48000B5
:100D2000B0B9AB4808380068C0F3400020B1E068B3
:100D3000012801D001207CE7A5480838006820F090
:100D4000F800216940EAC100A1490839086037E08C
:100D5000E06800B301209F490860FFF7CFFC05461B
:100D600006E0FFF7CBFC401B022801D9032060E717
:100D7000974808380068C0F340000028F1D0944834
:100D80000838006820F0F800216940EAC100904965
:100D90000839086014E000208E490860FFF7AEFCB7
:100DA000054606E0FFF7AAFC401B022801D90320F4
:100DB0003FE7874808380068C0F340000028F1D1B9
:100DC000207800F0080008282CD16069A8B1012023
:100DD00081490860FFF792FC054606E0FFF78EFCAC
:100DE000401B022801D9032023E779486C300068B2
:100DF000C0F340000028F1D014E0002076490860DC
:100E0000FFF77CFC054606E0FFF778FC401B022854
:100E100001D903200DE76E486C300068C0F3400034
:100E20000028F1D1207800F00400042870D10026B9
:100E300067483830006800F0805090B900BF00204B
:100E4000009063483830006840F080506049383185
:100E500008600846006800F08050009000BF00BFA6
:100E600001265E48006800F48070B0B95B480068F5
:100E700040F4807059490860FFF740FC054606E0E1
:100E8000FFF73CFC401B022801D90320D1E6534860
:100E9000006800F480700028F2D000BFA06801282C
:100EA00008D14B486830006840F00100484968317B
:100EB00008601DE0A06805280DD14548683000682D
:100EC00040F004004249683108600846006840F07C
:100ED000010008600CE03E486830006820F0010026
:100EE0003B49683108600846006820F0040008604B
:100EF00000BFA068A8B1FFF701FC054609E0FFF7B5
:100F0000FDFB401B41F28831884202D9032090E664
:100F100026E02F4868300068C0F340000028EED07B
:100F200013E0FFF7EBFB054608E0FFF7E7FB401B8C
:100F300041F28831884201D903207AE6244868309A
:100F40000068C0F340000028EFD1012E07D12048EF
:100F50003830006820F080501D493831086000BFEB
:100F6000A069E8B31A48006800F00C00082862D0B5
:100F7000A06902284AD1002016490866FFF7BEFB87
:100F8000054606E0FFF7BAFB401B022801D9032003
:100F90004FE60F4808380068C0F340600028F1D1E0
:100FA000D4E907010843616A40EA81110122A06A7D
:100FB000C2EB500041EA00412C20005D41EA006193
:100FC0003020005D41EA00700149091F086008E017
:100FD0000838024000004742800E4742007000403F
:100FE0002BE0012016490866FFF788FB054606E05E
:100FF000FFF784FB401B022801D9032019E61148A2
:101000000068C0F340600028F2D016E000200C49D0
:101010000866FFF773FB054606E0FFF76FFB401B12
:10102000022801D9032004E606480068C0F34060A6
:101030000028F2D101E00120FBE50020F9E50000E5
:10104000000047420038024070B504462546681E3D
:10105000B0F1807F01D301200FE0681E4FF0E02146
:1010600048610F214FF0FF3000F0D0FD00204FF01D
:10107000E021886107200861002070BD10B504469A
:101080000CB9012010BDA06900B100E000BF94F8C8
:10109000390028B9002084F83800204600F028F8EC
:1010A000242084F839002068C06820F400502168AA
:1010B000C860204600F0ACFB2068006920F4904036
:1010C000216808612068406920F02A002168486191
:1010D0002068C06840F400502168C8600020E063C8
:1010E000202084F8390084F83A000020CAE7000084
:1010F00010B586B00446142101A8FFF7B7F81B49C4
:10110000206888422FD100BF002000901848006856
:1011100040F40030164908600846006800F40030CA
:10112000009000BF00BF00BF0020009010481038A2
:10113000006840F001000E49103908600846006858
:1011400000F00100009000BF00BF0C2001900220C1
:10115000029001200390032004900720059001A92C
:101160000448FFF7CDF906B010BD00000044004070
:10117000403802400000024000BFFEE710B50121E8
:10118000022000F020F910BD2DE9F05F04460D4665
:1011900016461F46DDE90CABDDE90A8923480460E9
:1011A0002348058023480680234807602348A0F889
:1011B00000802348A0F800902248A0F800A0224810
:1011C000A0F800B000F078F802202049087028202C
:1011D0001F4908701420FFF77FF9032000F0B4F9CD
:1011E0000520FFF779F9032000F0AEF90120FFF7A1
:1011F00073F9032000F0A8F90120FFF76DF9022030
:1012000000F0A2F90120FFF767F90F2000F0D0F9F4
:10121000012000F0CDF90320FFF75EF9282000F04F
:10122000C7F90320FFF758F9BDE8F09F040000203C
:10123000080000200A000020180000201C000020E8
:101240001E000020200000202200002000000020BE
:101250002500002010B501220948018809480068CE
:10126000FFF746FA0A2000F081F8002204480188BE
:1012700004480068FFF73CFA3C2000F077F810BD06
:101280000A0000200400002010B504463CB10122F1
:101290000748018807480068FFF72AFA06E000229D
:1012A0000348018803480068FFF722FA10BD0000D8
:1012B000080000200400002010B52DED048B86B03E
:1012C000694601A8FFF7ACFB049818B9FFF7D0FBFB
:1012D000044602E0FFF7CCFB44002046FFF743F84A
:1012E00041EC190B9FED1D0B53EC102BFEF7C9FFC2
:1012F00041EC180BFFF744F804461A48006840F028
:101300000200184908601848006820F010001649CB
:1013100008600846006820F0010008600846006880
:1013200020F0040008600846006840F008000860EB
:10133000601E0D49283108600920091D0860012040
:10134000094914310860081F006820F00100091FD6
:10135000086006B0BDEC048B10BD00008DEDB5A09B
:10136000F7C6B03E4038024000040040411E0D4A1E
:1013700011600C491C39096821F00101094A1C3A25
:10138000116008492C39096841F00101054A2C3ADD
:10139000116000BF03491C39096801F001010029EF
:1013A000F8D070472C04004070B50546002404E0D6
:1013B000285D00F006F9601CC4B2102C02DA285D2A
:1013C0000028F5D170BD70B505460E46701E00F0C0
:1013D0000F04012D05D144F08004204600F0E8F808
:1013E00004E044F0C004204600F0E2F870BD0000C4
:1013F00070B5064606F00F04350948480078012804
:1014000042D104F001024648018846480068FFF7CF
:101410006FF904F002024448018842480068FFF76F
:1014200067F904F00402414801883E480068FFF76C
:101430005FF904F008023E4801883A480068FFF767
:1014400057F905F001023B4801883B480068FFF767
:101450004FF905F002023948018837480068FFF764
:1014600047F905F004023648018833480068FFF761
:101470003FF905F00802334801882F480068FFF75C
:1014800037F9FFF7E7FE47E024480078022843D108
:1014900005F001022748018827480068FFF728F96E
:1014A00005F002022548018823480068FFF720F96B
:1014B00005F00402224801881F480068FFF718F968
:1014C00005F008021F4801881B480068FFF710F963
:1014D000FFF7C0FE04F001021648018816480068B4
:1014E000FFF706F904F00202144801881248006868
:1014F000FFF7FEF804F00402114801880E48006866
:10150000FFF7F6F804F008020E4801880A48006860
:10151000FFF7EEF8FFF79EFE70BD00000000002010
:10152000100000200C0000201200002014000020F9
:10153000160000201C000020180000201E000020C3
:10154000200000202200002070B5054605F00F04A1
:101550000020FFF799FE04F00102104801881048AE
:101560000068FFF7C5F804F002020E4801880C4835
:101570000068FFF7BDF804F004020B480188084832
:101580000068FFF7B5F804F008020848018804482D
:101590000068FFF7ADF8FFF75DFE70BD1C0000208E
:1015A000180000201E000020200000202200002043
:1015B00010B504460020FFF767FE2046FFF718FF2E
:1015C00010BD10B504460120FFF75EFE2046FFF770
:1015D0000FFF10BD00B587B0142102A8FEF746FE2C
:1015E00000BF002001903C48006840F004003A49E8
:1015F00008600846006800F00400019000BF00BFCA
:1016000000BF002001900846006840F0800008609C
:101610000846006800F08000019000BF00BF00BFD6
:10162000002001900846006840F00100086008466C
:10163000006800F00100019000BF00BF00BF002063
:1016400001900846006840F0020008600846006803
:1016500000F00200019000BF00BF0022F0211F48EF
:10166000FFF746F800224FF440711D48FFF740F89D
:101670000022F0211B48FFF73BF84FF40050029086
:10168000194803900020049002A91548FEF738FF7E
:10169000F02002900120039000200490059002A900
:1016A0000E48FEF72DFF4FF440700290012003908A
:1016B00000200490059002A90948FEF721FFF020C0
:1016C00002900120039000200490059002A9054893
:1016D000FEF716FF07B000BD3038024000000240A0
:1016E00000080240000402400000211010B50B4821
:1016F0000B4908604FF4E1304860002108488160E0
:10170000C16001610C21416100218161C161FFF76C
:10171000B5FC08B1FEF7DFFE10BD0000004400403C
:101720003800002000BFFEE770477047704710B5D3
:10173000FEF7EAFF10BD000000B593B0342106A803
:10174000FEF794FD142101A8FEF790FD00BF0020D4
:1017500000902648006840F0805024490860084600
:10176000006800F08050009000BF00BF00BF002064
:1017700000901F48006820F4404040F480401C491D
:1017800008600846006800F44040009000BF00BFB9
:10179000022006900120099010200A9002200C904F
:1017A00000210D9110210E914FF4A8710F91042189
:1017B000109102211191129106A8FFF705FA08B1C4
:1017C000FEF789FE0F200190022002900020039076
:1017D0004FF48050049000200590022101A8FFF7EB
:1017E0005DF808B1FEF777FE13B000BD4038024047
:1017F000007000400548006840F47000034908602C
:101800004FF00060014980390860704788ED00E0C2
:101810002DE9F84F04462068006920F44050E16843
:101820000843216808612169A06808436169084389
:10183000E169084300902068C06849F20C61884360
:10184000009908432168C8602068406920F440700E
:10185000A169084321684861E069B0F5004F75D17E
:10186000E3492068884203D0E249206888426FD16A
:10187000FFF70EF9814602206168A0FB01510B467B
:101880001920A9FB00712A463846FEF7B7FC6421EF
:10189000B0FBF1F04FEA001A02206168A0FB015191
:1018A0000B461920A9FB00712A463846FEF7A6FC14
:1018B000074602206168A0FB01510B461920A9FBD5
:1018C00000B12A465846FEF799FC6421B0FBF1F0BE
:1018D00000EBC00101EB0010A7EB8000322101EB0F
:1018E000C0006421B0FBF1F000F0F8000AEB400A00
:1018F00002206168A0FB01510B461920A9FB007171
:101900002A463846FEF77AFC074602206168A0FBAB
:1019100001510B461920A9FB00B12A465846FEF793
:101920006DFC6421B0FBF1F000EBC00101EB001095
:10193000A7EB8000322101EBC0006421B0FBF1F085
:1019400000F007005044216888604FE16EE0FFE737
:10195000FFF78EF8814602206168A0FB01510B461B
:101960001920A9FB00712A463846FEF747FC64217E
:10197000B0FBF1F04FEA001A02206168A0FB0151B0
:101980000B461920A9FB00712A463846FEF736FCA3
:10199000074602206168A0FB01510B461920A9FBF4
:1019A00000B12A465846FEF729FC6421B0FBF1F04D
:1019B00000EBC00101EB0010A7EB8000322101EB2E
:1019C000C0006421B0FBF1F000F0F8000AEB400A1F
:1019D00002206168A0FB01510B461920A9FB007190
:1019E0002A463846FEF70AFC074602206168A0FB3B
:1019F000015003461920A9FB00B12A465846FEF7BC
:101A0000FDFB6421B0FBF1F000EBC00101EB001025
:101A1000A7EB8000322101EBC0006421B0FBF1F0A4
:101A200000F00700504421688860DFE070492068BA
:101A3000884203D06F49206888426BD1FFF728F8AD
:101A4000814604206168A0FB01510B461920A9FBC7
:101A500000712A463846FEF7D1FB824604206168B1
:101A6000A0FB01510B461920A9FB00712A463846FC
:101A7000FEF7C4FB6421B0FBF1F000EBC00101EB09
:101A80000010AAEB8000322101EB00106421B0FBB2
:101A9000F1F000F0F00A04206168A0FB0150034659
:101AA0001920A9FB00712A463846FEF7A7FB6421DE
:101AB000B0FBF1F00AEB001A04206168A0FB0151B1
:101AC0000B461920A9FB00712A463846FEF796FB03
:101AD000074604206168A0FB015003461920A9FBBA
:101AE00000B12A465846FEF789FB6421B0FBF1F0AD
:101AF00000EBC00101EB0010A7EB8000322101EBED
:101B000000106421B0FBF1F000F00F005044216898
:101B100088606BE0FEF7ACFF814604206168A0FBA3
:101B2000015003461920A9FB00712A463846FEF7EA
:101B300065FB824604206168A0FB01500346192022
:101B4000A9FB00712A463846FEF758FB6421B0FB1A
:101B5000F1F000EBC00101EB0010AAEB8000322194
:101B600001EB00106421B0FBF1F000F0F00A04205A
:101B70006168A0FB015003461920A9FB00712A46A9
:101B80003846FEF73BFB6421B0FBF1F00AEB001A8C
:101B900004206168A0FB017003461920A9FB0050D6
:101BA00001463A462846FEF729FB074604206168AD
:101BB000A0FB015003461920A9FB00B12A46584654
:101BC000FEF71CFB6421B0FBF1F000EBC00101EB60
:101BD0000010A7EB8000322101EB00106421B0FB64
:101BE000F1F000F00F00504421688860BDE8F88FE4
:101BF000001001400014014000BFFEE702480068E9
:101C0000C0F30220704700000CED00E010B5002882
:101C100004DB0A07130E054A135406E00A07140EE4
:101C2000034A00F00F031B1FD45410BD00E400E072
:101C300018ED00E002E008C8121F08C1002AFAD11E
:101C400070477047002001E001C1121F002AFBD13C
:101C5000704700001FB5FEF763FDFFF76DFDFFF74E
:101C6000B9FCFFF743FD8020402120221023CDE95D
:101C70000032CDE90210084B820041000748FFF70F
:101C800083FA07A0FFF790FBFFF778FA06A0FFF7AB
:101C90008BFB00BFFEE7000000040240000802408A
:101CA00049204C6F76650000537572616A00000030
:101CB00000000000000000000102030406070809FC
:101CC0000000000001020304E81C000800000020DE
:101CD00038000000341C0008201D000838000020D7
:101CE00040040000441C0008010000000000000047
:101CF00000000000000000000000000000000000E4
:101D00000000000000000000000000000F3800008C
:101D10000000000010000000010000000024F4009A
:04000005080001C529
:00000001FF
