:020000040800F2
:1000000078040020C90000086D1100087110000874
:1000100000000000000000000000000000000000E0
:10002000000000000000000000000000891400082B
:100030000000000000000000E91100088B14000817
:10004000DB00000800000000DB000008DB00000807
:10005000DB00000859010008DB000008DB00000895
:1000600000000000DB000008DB000008DB000008E7
:10007000DB000008DB000008DB00000800000000D7
:10008000DB000008DB00000800000000DB000008C7
:10009000DB000008DB000008DB000008DB000008D4
:1000A000DB000008ED110008DB000008DB000008A1
:1000B000DB0000080348854600F03CF80048004794
:1000C0008D15000878040020044880470448004744
:1000D000FEE7FEE7FEE7FEE7FEE7FEE7F9140008AD
:1000E000B500000830B50B4601460020202201244F
:1000F00009E00D46D5409D4205D31D469540491B5C
:100100002546954040191546521E002DF1DC30BDA4
:10011000D2B201E00270401C491EFBD2704700229F
:10012000F6E710B513460A4604461946FFF7F0FFF6
:10013000204610BD064C0125064E05E0E36807CCBD
:100140002B430C3C98471034B442F7D3FFF7B6FF6B
:10015000041600082416000810B501200249087092
:1001600000F042F810BD000000000020704770B59C
:10017000044600252120005D022803D00420A0634E
:1001800001251EE0206800680E2188432168086070
:100190002068006840084000216808600120216C48
:1001A0008840E16B486001212120015500BF0021FA
:1001B0002020015500BF606B002802D02046616BF3
:1001C0008847284670BD31B500F020F90546009CEF
:1001D000601C002800D0641C00BF00F017F9401B11
:1001E000A042FAD338BD704710B5044605484069AF
:1001F0002040002804D0034844612046FFF7F3FF65
:1002000010BD00000004014078B503460022002420
:100210000020DEE0012696400D6835402C46002C7B
:100220007ED04D68022D02D04D68122D15D1D50813
:10023000AE001D462035A8595507EE0E0F25B540D6
:100240000646AE4330465607F60E0D69B5402843C4
:10025000D508AD001E46203670511868560003259B
:10026000B5400646AE4330460D79AD07AD0F56009A
:10027000B540284318604D68012D08D04D68022D07
:1002800005D04D68112D02D04D68122D18D19868F7
:1002900056000325B5400646AE4330465600CD68AD
:1002A000B540284398605868012595400646AE43FE
:1002B000304610264D6835402D099540284358603A
:1002C000D86856000325B5400646AE433046560072
:1002D0008D68B5402843D860012636074D68354003
:1002E000B54275D100BF3E4DAD69012635433C4E48
:1002F000B5613546AD69ED07ED0F009500BF00BF54
:10030000384D9608B600A85995072E0F0F25B54011
:100310000646AE4330460925ED06AB4203D100E068
:1003200056E000250FE0304DAB4201D101250AE037
:100330002E4DAB4201D1022505E02D4DAB4201D13E
:10034000032500E005259607360FB5402843254DC7
:100350009608B600A851274D28680546A5432846AB
:10036000012636044D683540B54202D10546254385
:100370002846204D286068680546A5432846012682
:1003800076044D683540B54202D1054625432846DE
:10039000184D6860A8680546A5432846012636051D
:1003A0004D683540B54202D1054625432846114DDA
:1003B000A860E8680546A5432846012676054D68ED
:1003C0003540B54202D1054625432846094DE8602F
:1003D000521C0D68D540002D00D01BE778BD0000F1
:1003E00000100240080001400004004800080048D6
:1003F000000C00480004014042694A4042617047D5
:10040000002A01D0816100E08162704701480068E4
:10041000704700000800002002480068401C0149A5
:10042000086070470800002010B5064800681021D9
:10043000084304490860002000F006F800F018F8AE
:10044000002010BD0020024070B5044600F010F9F5
:1004500006467D21C900FFF745FE054600F0ECFD8C
:1004600000222146501E00F02FF8002070BD000031
:1004700008B500BF0D488069012108430B49886118
:1004800008468069C007C00F009000BF00BF00BFD2
:100490000846C069090408430449C8610846C069A0
:1004A00009040840009000BF00BF08BD00100240D2
:1004B00000BFC206D20E01219140024A116000BF66
:1004C0007047000000E100E070B504460D46164696
:1004D0002946204600F04CFE70BD000070B5044671
:1004E0000D4600265D480068C007C00FA8420ED226
:1004F0005A480068400840002843584908600846A8
:100500000068C007C00FA84201D0012070BD0221C1
:1005100020680840022807D151484068F0218843EC
:10052000A16808434E4948602078C007C00F0028E2
:100530005FD06068012808D149480068012149045A
:100540000840002815D10120E0E76068022808D1A2
:1005500043480068012149060840002809D10120CC
:10056000D4E73F48006802210840002801D101205B
:10057000CCE73B4840688008800061680843384900
:100580004860FFF743FF0646606801280FD107E087
:10059000FFF73CFF801B3349884201D90320B5E7B0
:1005A0002F4840680C2108400428F1D121E0606800
:1005B00002280FD107E0FFF729FF801B2949884255
:1005C00001D90320A2E7264840680C2108400828EA
:1005D000F1D10EE007E0FFF719FF801B21498842A7
:1005E00001D9032092E71E4840680C2108400028EA
:1005F000F1D11A480068C007C00FA8420ED91748A9
:100600000068400840002843144908600846006814
:10061000C007C00FA84201D0012077E7042120685D
:100620000840042808D10E48406807210902884381
:10063000E16808430A49486000F020F80849496821
:10064000F02211400909084A515CC8400749086076
:100650000020FFF7F9FE002058E7000000200240CC
:100660000010024088130000EC1500080C00002068
:1006700001480068704700000C000020F0B589B008
:1006800024A001460EC9C06805AC0EC4089025A080
:1006900001460EC9C06801AC0EC4049000240027B6
:1006A0000025002600200090224844680C202040AD
:1006B000002827D0042802D0082822D102E01E48B2
:1006C000009022E00F2080042040800C05A90E5CE1
:1006D0001848C06A0007000F01A90F5C0120000440
:1006E000204001210904884206D139461248FFF70B
:1006F000F9FC7043054602E0104835464543009535
:1007000003E000BF0C48009000BF00BF009809B094
:10071000F0BD000002030405060708090A0B0C0DD2
:100720000E0F10100102030405060708090A0B0C3E
:100730000D0E0F100010024000127A0000093D005B
:10074000F8B5044600252078C007C00F002871D0F6
:10075000F94840680C21084004280BD0F64840684E
:100760000840082812D1F4484068012109040840D3
:1007700088420BD1F0480068012149040840002854
:100780006BD06068002868D10120F8BD00BF6068A8
:10079000012807D1E8480068012109040843E64917
:1007A000086031E0606800280ED1E348006801214C
:1007B00009048843E049086008460068012189046B
:1007C0008843DD4908601FE0606805280ED1DA48DB
:1007D0000068012189040843D74908600846006879
:1007E000012109040843D44908600DE0D24800689B
:1007F000012109048843D0490860084600680121A6
:1008000089048843CC49086000BF6068002812D082
:10081000FFF7FCFD054606E0FFF7F8FD401B6428E6
:1008200001D90320B1E7C448006801214904084008
:100830000028F1D011E0FFF7E9FD054606E0FFF7DB
:10084000E5FD401B642801D903209EE7BA480068F3
:100850000121490408400028F1D102212068084004
:10086000022861D1B44840680C21084000280BD010
:10087000B1484068084008281BD1AF4840680121B2
:1008800009040840002814D1AB4800680221084040
:10089000002804D0E068012801D0012075E7A648AF
:1008A0000068F82188432169C9000843A24908600B
:1008B0003AE0E068002820D09F4800680121084302
:1008C0009D490860FFF7A2FD054606E0FFF79EFD83
:1008D000401B022801D9032057E7974800680221EE
:1008E00008400028F2D094480068F8218843216924
:1008F000C90008439049086016E08F480068400826
:1009000040008D490860FFF781FD054606E0FFF7CE
:100910007DFD401B022801D9032036E78648006888
:10092000022108400028F2D1082120680840082848
:1009300031D1E069002817D07F48406A012108437F
:100940007D494862FFF762FD054606E0FFF75EFD60
:10095000401B022801D9032017E77748406A02218B
:1009600008400028F2D016E07348406A4008400072
:1009700071494862FFF74AFD054606E0FFF746FD6C
:10098000401B022801D90320FFE66B48406A022180
:1009900008400028F2D1042120680840042871D1C1
:1009A00000266548C0698906084000280DD100BFAF
:1009B0006148C06908436049C8610846C0690904C4
:1009C0000840009000BF00BF01265C480068FF217E
:1009D00001310840002816D158480068084357499B
:1009E0000860FFF713FD054606E0FFF70FFD401B0B
:1009F000642801D90320C8E650480068FF2101316E
:100A000008400028F1D000BFA068012806D14A485C
:100A1000006A01210843484908622BE0A0680028C9
:100A20000CD14548006A4008400043490862084626
:100A3000006A04218843404908621BE0A068052839
:100A40000CD13D48006A042108433B49086208462E
:100A5000006A01210843384908620BE03648006A01
:100A600040084000344908620846006A042188436F
:100A70003149086200BFA068002813D0FFF7C6FC08
:100A8000054608E029E0FFF7C1FC401B2C498842DD
:100A900001D9032079E62848006A0221084000288D
:100AA000F1D011E0FFF7B2FC054607E0FFF7AEFC1E
:100AB000401B2349884201D9032066E61E48006A8C
:100AC000022108400028F1D1012E05D11A48C06941
:100AD000310788431849C86100BF102120680840C9
:100AE00010285FD1606901282CD11348406B042184
:100AF0000843114948630846406B012108430E49E9
:100B00004863FFF783FC054606E0FFF77FFC401BC8
:100B1000022801D9032038E60748406B022108402B
:100B20000028F2D00448406BF8218843A169C9002D
:100B300008430149486335E000100240007000405E
:100B4000881300006069401D00280FD14E48406B9B
:100B5000042188434C4948630846406BF821884388
:100B6000A169C9000843484948631BE04648406BF7
:100B700004210843444948630846406B400840004C
:100B80004863FFF743FC054606E0FFF73FFC401BC8
:100B9000022801D90320F8E53B48406B02210840B8
:100BA0000028F2D1206A00286CD0374840680C2118
:100BB0000840082864D0206A022847D132480068DB
:100BC00001210906884330490860FFF71FFC0546EC
:100BD00006E0FFF71BFC401B022801D90320D4E5E7
:100BE000294800680121490608400028F1D100BFCA
:100BF0002548C06A00090001E16A08432249C86229
:100C0000616AA06A0843204949683D221204914361
:100C100008431D49486000BF0846006801210906D5
:100C2000084319490860FFF7F1FB054606E0FFF7A6
:100C3000EDFB401B022801D90320A6E512480068FD
:100C40000121490608400028F1D01BE00E48006849
:100C50000121090688430C490860FFF7D7FB0546C8
:100C600006E0FFF7D3FB401B022801D903208CE5E7
:100C7000054800680121490608400028F1D101E03B
:100C8000012082E5002080E500100240704700004E
:100C9000F8B50446206846682068856840202840EA
:100CA00000280BD1E807C00F002807D040203040B3
:100CB000002803D02046E16C8847F8BD0220284078
:100CC000002807D080203040002803D02046216D26
:100CD0008847F2E7FF206130284000287FD020209D
:100CE000304000287BD04020284000281ED05D20C6
:100CF000005D03280ED0206E04210843206600BF4B
:100D0000002000902068C0680090206880680090F3
:100D100000BF0BE000BF002000902068C06800907A
:100D200020688068009000BF00BFC6E720202840F0
:100D3000002811D0206E01210843206600BF00204A
:100D400000902068806800902068006840218843F7
:100D50002168086000BF00BFFF2001302840002844
:100D60000BD0206E08210843206600BF00200090B1
:100D700020688068009000BF00BF206E00282DD042
:100D800020684068E02188432168486001215D2097
:100D9000015502203040002803D1F007C00F002881
:100DA00019D0206840688008800021684860A06DE4
:100DB000002805D00B48A16D4863A06DFFF7D7F957
:100DC000606D00280AD00748616D4863606DFFF7C9
:100DD000CEF903E003E02046FFF758FF6DE700BFC0
:100DE0006BE700006112000870B50446002C01D1C9
:100DF000012070BD606A002800D100BF0021A162FF
:100E00005D20005D002804D15C200155204600F0E3
:100E100059F802215D20015520680068402188436F
:100E20002168086007210902E068884201D900258D
:100E300001E001252D030F210902E068884206D058
:100E400007210902E068884201D00021A162206BDD
:100E5000002809D107210902E068884202D902214D
:100E6000216301E001212163A168606808432169D1
:100E700008436169084301225202A16911400843F5
:100E8000E1690843216A0843A16A084321680860B0
:100E9000A069000C04210840616A0843616B0843A3
:100EA000E16808432843216848602068C0699100D0
:100EB00088432168C8610020206601215D2001551A
:100EC000002096E710B586B00446142101A8FFF76C
:100ED00026F91D492068884233D100BF1B4880692C
:100EE00089140843194988610846806989140840B3
:100EF000009000BF00BF00BF14484069490108438B
:100F0000124948610846406901214904084000909F
:100F100000BF00BFE020019002200290002003905B
:100F2000032004900020059001A90920C006FFF7C6
:100F30006BF9002211461920FFF7C6FA1920FFF7B6
:100F4000B7FA06B010BD00000030014000100240AA
:100F500030B50346002407252D02D868A84201D8E1
:100F6000012A00D900BF00BF5C20C05C012801D16C
:100F7000022030BD01255C20C55400BF002901D0EE
:100F8000002A01D101243CE05D20C05C012801D091
:100F9000022436E003255D20C554002018669963BD
:100FA0009A87DA87186400254420C5524620C55226
:100FB0000020D86407252D02D868A84202D9144819
:100FC000186501E0134818650125ED039868A842EB
:100FD00005D1186800686D1028431D6828601868DE
:100FE0004068A02528431D6868601868006840258F
:100FF0002840402804D01868006828431D682860ED
:1010000000BF00BF00255C20C55400BF2046B0E7EC
:10101000E31200080913000810B50446012251022A
:101020000448FFF7EDF9012211020248FFF7E8F941
:1010300010BD00000008004870B504462546681E33
:101040000949884201D901200CE0681E074948611E
:101050000321081F00F08CF8002004498861072054
:101060000861002070BD0000FFFFFF0000E000E00D
:1010700000BFFEE700B587B0142102A8FFF74FF8C4
:1010800000BF224840690121490408431F494861C3
:1010900008464069012149040840019000BF00BF93
:1010A00000BF1A484069890008431849486108464A
:1010B00040690121C9040840019000BF00BF00221F
:1010C000032109021248FFF79BF901200290114801
:1010D00003900020049002A90920C006FFF794F8AD
:1010E000032000020290012003900020049005904C
:1010F00002A90748FFF788F8002211460520FFF7EC
:10110000E3F90520FFF7D4F907B000BD0010024055
:10111000000800480000111010B51248124908607C
:10112000FF200530486000210F4881600721090237
:10113000C1600021016101214161490281612821D1
:10114000C16100210162416281620721C162002107
:1011500001634163FFF748FE002801D0FFF706F85E
:1011600010BD00000030014010000020704700005A
:1011700010B5002819DA1A4A03071B0F083B9B0811
:101180009B00D2588307DC0EFF23A3409A438B07B2
:101190001B0E8407E40EA3401A43114B0407240FCF
:1011A000083CA408A4001A5118E00E4A03231B02AD
:1011B000D21883089B00D2588307DC0EFF23A3407C
:1011C0009A438B071B0E8407E40EA3401A43054B7A
:1011D000032424021B198408A4001A5110BD000026
:1011E0001CED00E000E100E07047000010B502488F
:1011F000FFF74EFD10BD00001000002038B504467A
:101200000025FFF703F9054620684068A0218843C0
:10121000216848602A466421204600F02DF8002805
:1012200003D0206E202108432066A068002809D141
:1012300000BF00902068C06800902068806800901F
:1012400000BF00BF01215D200155206E002803D0A2
:101250002046FFF71BFD02E02046FFF7DDFE38BD0C
:1012600070B505466C6A0021462001530020E087D6
:101270002046FFF70BFD70BDF8B504460E46154637
:10128000334600220321C9022046009500F04EF8A3
:10129000002805D0206E2021084320660320F8BDD9
:1012A0003346002280212046009500F099F800285E
:1012B00005D0206E2021084320660320EFE7334647
:1012C0000022032149022046009500F02FF8002853
:1012D00005D0206E2021084320660320DFE7002090
:1012E000DDE710B50446A06B00882168C860A06BDC
:1012F000801CA063E08F401EE087E08F002802D1B1
:101300002046FFF77BFF10BD10B50446A16B481CBB
:10131000A063087821680873E08F401EE087E08FA3
:10132000002802D12046FFF769FF10BDF8B504463A
:101330000E4617461D464CE003204002864206D169
:10134000002F04D12068017B009168460078681C5A
:1013500000283ED0002D05D0FFF758F80699401A16
:10136000A84236D320684068E0218843216848605D
:10137000FF210531606888420ED10121C903A068B0
:10138000884203D04911A068884205D120680068CE
:10139000402188432168086001214903A06A8842EE
:1013A0000DD100BF2068006888432168086020686C
:1013B00000680121490308432168086000BF01213A
:1013C0005D20015500BF00215C20015500BF0320B6
:1013D000F8BD206880683040B842ADD10020F7E702
:1013E000F8B504460E4617461D4641E0681C002825
:1013F0003ED0002D05D0FFF709F80699401AA84203
:1014000036D320684068E021884321684860FF2186
:101410000531606888420ED10121C903A068884265
:1014200003D04911A068884205D120680068402196
:1014300088432168086001214903A06A88420DD1D0
:1014400000BF206800688843216808602068006841
:101450000121490308432168086000BF01215D2084
:10146000015500BF00215C20015500BF0320F8BDDD
:10147000206880683040B04201D1012000E00020A7
:10148000B842B3D10020F2E7704710B5FEF7C4FFB1
:1014900010BD00B591B0302105A8FEF740FE002038
:1014A0000190029003900490022005900120089082
:1014B0001020099002200D9000210E910321C904F3
:1014C0000F910021109105A8FFF73AF9002801D0EB
:1014D000FEF74CFE072001900220029000200390AE
:1014E0000490012101A8FEF7F9FF002801D0FEF7C2
:1014F0003DFE11B000BD00001948006801210843FD
:101500001749086008464068164908401449486071
:1015100008460068144908401149086008460068F8
:101520000121890488430E490860084640683F212C
:10153000090488430A4948600846C06A0009000156
:10154000C8620846006BFF211431884304490863D0
:101550000846406B400840004863002088607047A0
:10156000001002400CB8FF08FFFFF6FE02E008C8BA
:10157000121F08C1002AFAD170477047002001E00D
:1015800001C1121F002AFBD170470000FEF74CFF7B
:10159000FFF77FFFFFF76EFDFFF7BEFD0DE00121B6
:1015A00049020E48FEF728FFFF2101310B48FEF7E4
:1015B00023FFFF20F530FEF706FE094800780128DA
:1015C000EDD10022032109020448FEF719FF012290
:1015D00004490548FFF7BCFC00BFFEE700080048CF
:1015E0000000002006000020100000200000000085
:1015F00000000000010203040607080900000000C3
:10160000010203042416000800000020100000005E
:101610006C15000834160008100000206804000053
:101620007C15000800A1A2A3A4006A00000000002D
:0416300000127A002A
:04000005080000B53A
:00000001FF
