:020000040800F2
:10000000B8040020D90100084D150008FD130008B0
:1000100049150008E5020008191E0008000000004C
:10002000000000000000000000000000511900085E
:10003000E9020008000000004F15000853190008ED
:10004000F3010008F3010008F3010008F3010008C0
:10005000F3010008F3010008F3010008F3010008B0
:10006000F3010008F3010008F3010008F3010008A0
:10007000F3010008F3010008F3010008F301000890
:10008000F3010008F3010008F3010008F301000880
:10009000F3010008F3010008F3010008F301000870
:1000A000F3010008F3010008F3010008F301000860
:1000B000F3010008F3010008F3010008F301000850
:1000C000F3010008F3010008F3010008F301000840
:1000D00051150008F3010008F3010008F3010008BE
:1000E000F3010008F3010008F3010008F301000820
:1000F000F3010008F3010008F3010008F301000810
:10010000F3010008F3010008F3010008F3010008FF
:10011000F3010008F3010008F3010008F3010008EF
:10012000F3010008F3010008F3010008F3010008DF
:10013000F30100080000000000000000F3010008C7
:10014000F3010008F3010008F3010008F3010008BF
:10015000F3010008F3010008F3010008F3010008AF
:10016000F3010008F3010008F3010008F30100089F
:10017000F3010008F3010008F3010008000000008B
:1001800000000000F3010008000000000000000073
:10019000F30100080000000000000000F301000867
:1001A000000000000000000000000000F301000853
:1001B000F3010008F3010008F3010008F30100084F
:1001C000F3010008DFF80CD000F07AF8004800478F
:1001D000751E0008B80400200648804706480047FE
:1001E000FEE7FEE7FEE7FEE7FEE7FEE7FEE7FEE7E7
:1001F000FEE7FEE7151A0008C50100082DE9F05FCB
:100200000546002092469B46884606468146402485
:100210001BE0284641464746224600F041F8534637
:100220005A46C01A914110D311461846224600F092
:1002300028F82D1A67EB01084F46224601200021BD
:1002400000F01FF817EB00094E41201EA4F1010435
:10025000DFDC484631462A464346BDE8F09FD2B22D
:1002600001E000F8012B491EFBD270470022F6E79F
:1002700010B513460A4604461946FFF7F0FF20461C
:1002800010BD202A04DB203A00FA02F1002070475A
:100290009140C2F1200320FA03F3194390407047C4
:1002A000202A04DB203A21FA02F00021704721FACB
:1002B00002F3D040C2F12002914008431946704732
:1002C000064C074D06E0E06840F0010394E80700A3
:1002D00098471034AC42F6D3FFF778FFE41E0008CD
:1002E000041F000800BFFEE770477047014691F801
:1002F0003500022803D08020486501207047052082
:1003000081F835000868006820F001000A68106074
:100310000020F3E7F8B502460B4600250024002034
:100320000021D7E0012606FA01F51E6806EA050459
:10033000AC4273D15E68012E08D05E68022E05D0F3
:100340005E68112E02D05E68122E13D190684F00A5
:100350000326BE40B0434F00DE68BE40304390608D
:10036000506801268E40B0431E79C6F300168E40B9
:1003700030435060D0684F000326BE40B0434F006A
:100380009E68BE403043D0605E68022E02D05E6838
:10039000122E13D1CF0802F1200656F827004E077F
:1003A000F70E0F26BE40B0434F07FF0E1E69BE403A
:1003B0003043CF0802F1200646F8270010684F00AE
:1003C0000326BE40B0431E7906F003064F00BE4030
:1003D000304310605E6806F08056B6F1805F78D1D9
:1003E00000BF002600963D4E366846F480463B4FDF
:1003F0003E603E46366806F48046009600BF00BF69
:10040000374E8F0856F827008E07370F0F26BE404D
:10041000B043344EB24202D100261FE059E0324EC2
:10042000B24201D1012619E0304EB24201D102267A
:1004300014E02F4EB24201D103260FE02D4EB242FE
:1004400001D104260AE02C4EB24201D1052605E076
:100450002A4EB24201D1062600E007268F073F0F41
:10046000BE4030431E4E8F0846F82700244E3068A9
:10047000A0435E6806F48036B6F5803F00D1204385
:100480001F4E3060361D3068A0435E6806F40036AB
:10049000B6F5003F00D12043194E361D3060361DA1
:1004A0003068A0435E6806F48016B6F5801F00D160
:1004B0002043134E08363060361D3068A0435E6816
:1004C00006F40016B6F5001F00D120430C4E0C3682
:1004D0003060491C1029FFF425AFF8BD44380240B4
:1004E00008380140000002400004024000080240B9
:1004F000000C0240001002400014024000180240AC
:10050000003C014042690A408A4202D10A048261E9
:1005100000E0816170470AB1816101E00B048361F1
:10052000704700000148006870470000100000207C
:100530000348006803490978084401490860704786
:10054000100000201800002010B50D48006840F48D
:1005500000700B4908600846006840F4806008603D
:100560000846006840F480700860032000F0A6F898
:10057000002000F007F800F02BF8002010BD00006C
:10058000003C024070B504460E4800784FF47A7182
:10059000B1FBF0F00C490968B1FBF0F5284600F01A
:1005A00096FE08B1012070BD102C07D20022214612
:1005B000501E00F045F80548046001E00120F2E714
:1005C0000020F0E7180000201C000020140000208C
:1005D00008B500BF002000901048006840F480403B
:1005E0000E4908600846006800F48040009000BF93
:1005F00000BF00BF00200090081F006840F080503E
:10060000091F08600846006800F08050009000BF95
:1006100000BF072000F052F808BD00004438024037
:1006200001460846002809DB00F01F0301229A401A
:1006300043099B0003F1E023C3F8002100BF70478A
:100640002DE9F05F80460D461646002701F0E6FBD7
:10065000074639462A46334601F00700C0F1070A2B
:10066000BAF1040F02D94FF0040A01E0C0F1070A01
:10067000D14600F1040ABAF1070F02D24FF0000A86
:1006800001E0A0F1030AD4464FF0010A0AFA09FA80
:10069000AAF1010A0AEA020A0AFA0CFA4FF0010B5F
:1006A0000BFA0CFBABF1010B0BEA030B4AEA0B0450
:1006B0002146404601F0BAFBBDE8F09F00BF00F0C4
:1006C0000702064B19684FF6FF031940044B0B4312
:1006D00043EA0221014B196000BF70470CED00E0B6
:1006E0000000FA0570B504460D460CB9012070BD36
:1006F0005848006800F00F00A84209D255490D7013
:100700000846006800F00F00A84201D00120EEE783
:10071000207800F0020002281DD1207800F00400AB
:10072000042805D14C48006840F4E0504A4908606C
:10073000207800F00800082805D14748006840F4F8
:100740006040454908604448006820F0F000A16816
:10075000084341490860207800F00100A8B36068B0
:10076000012807D13C4808380068C0F34040B8B9B8
:100770000120BCE76068022802D06068032807D126
:10078000354808380068C0F3406048B90120AEE73A
:10079000314808380068C0F3400008B90120A6E7D6
:1007A0002D48006820F00300616808432A4908606A
:1007B000FFF7B8FE064609E0FFF7B4FE801B41F2E2
:1007C0008831884202D9032091E707E02248006877
:1007D00000F00C006168B0EB810FEDD11D4800689E
:1007E00000F00F00A84209D91A490D7008460068A8
:1007F00000F00F00A84201D0012078E7207800F037
:100800000400042807D11448006820F4E050E1688F
:10081000084311490860207800F00800082808D132
:100820000D48006820F46040216940EAC1000A498F
:10083000086000F03FF808490968C1F30311074A4E
:10084000515CC8400649086006480068FFF79AFEF8
:1008500000204CE7003C024008380240CC1E000853
:100860001C000020140000200148006870470000B0
:100870001C00002000B5FFF7F7FF04490968C1F329
:100880008221034A515CC84000BD00000838024084
:10089000DC1E000800B5FFF7E7FF04490968C1F353
:1008A0004231034A515CC84000BD00000838024094
:1008B000DC1E00082DE9F047002400250026A14693
:1008C000A2463F48006800F00C0030B1042807D071
:1008D000082808D00C286BD138E0DFF8E8A06AE0DF
:1008E000DFF8E4A067E03648001F006800F03F042E
:1008F0003348001F006800F4800078B13248304966
:10090000091F0968C1F38811A0FB01700146224646
:1009100000233846FFF772FC05460DE029482849B8
:10092000091F0968C1F38811A0FB01712246002349
:100930003846FFF763FC05462148001F0068C0F3F6
:100940000140401C4600B5FBF6FA34E01C48001F8D
:10095000006800F03F041A48001F006800F480009F
:1009600078B119481649091F0968C1F38811A0FB1D
:1009700001700146224600233846FFF73FFC05463A
:100980000EE010480E49091F0968C1F38811A0FB49
:1009900001700146224600233846FFF72FFC05462A
:1009A0000748001F0068C0F30279B5FBF9FA02E0BE
:1009B000DFF810A000BF00BF5046BDE8F087000080
:1009C000083802400024F40000127A00F8B504460A
:1009D0000025207800F0010000286FD0FD48006855
:1009E00000F00C0004281BD0FA48006800F00C004E
:1009F000082807D1F748001F006800F48000B0F510
:100A0000800F0DD0F348006800F00C000C2813D1C3
:100A1000F048001F006800F48000B0F5800F0BD193
:100A2000EC4808380068C0F34040002859D060689E
:100A3000002856D10120F8BD00BF6068B0F5803FA6
:100A400008D1E4480838006840F48030E1490839AA
:100A500008601EE06068B0F5A02F0DD1DD480838B1
:100A6000006840F48020DB490839086008460068C7
:100A700040F4803008600CE0D6480838006820F464
:100A80008030D449083908600846006820F4802086
:100A9000086000BF606890B1FFF744FD054606E0BE
:100AA000FFF740FD401B642801D90320C3E7C94874
:100AB00008380068C0F340400028F1D011E0FFF78B
:100AC00031FD054606E0FFF72DFD401B642801D9E6
:100AD0000320B0E7BF4808380068C0F34040002852
:100AE000F1D1207800F0020002286BD1B9480068EB
:100AF00000F00C00B8B1B748006800F00C000828FE
:100B000005D1B448001F006800F4800058B1B14816
:100B1000006800F00C000C281CD1AE48001F0068D3
:100B200000F48000B0B9AB4808380068C0F340005A
:100B300020B1E068012801D001207CE7A5480838F1
:100B4000006820F0F800216940EAC100A149083995
:100B5000086037E0E06800B301209F490860FFF7B4
:100B6000E1FC054606E0FFF7DDFC401B022801D949
:100B7000032060E7974808380068C0F34000002869
:100B8000F1D094480838006820F0F800216940EA64
:100B9000C10090490839086014E000208E490860BF
:100BA000FFF7C0FC054606E0FFF7BCFC401B02282F
:100BB00001D903203FE7874808380068C0F34000A8
:100BC0000028F1D1207800F0080008282CD16069B5
:100BD000A8B1012081490860FFF7A4FC054606E0A2
:100BE000FFF7A0FC401B022801D9032023E7794826
:100BF0006C300068C0F340000028F1D014E0002001
:100C000076490860FFF78EFC054606E0FFF78AFC90
:100C1000401B022801D903200DE76E486C300068A4
:100C2000C0F340000028F1D1207800F0040004282F
:100C300070D1002667483830006800F0805090B9C5
:100C400000BF0020009063483830006840F08050BA
:100C50006049383108600846006800F08050009014
:100C600000BF00BF01265E48006800F48070B0B984
:100C70005B48006840F4807059490860FFF752FCF7
:100C8000054606E0FFF74EFC401B022801D9032071
:100C9000D1E65348006800F480700028F2D000BF0D
:100CA000A068012808D14B486830006840F0010076
:100CB0004849683108601DE0A06805280DD1454805
:100CC0006830006840F00400424968310860084616
:100CD000006840F0010008600CE03E4868300068A1
:100CE00020F001003B49683108600846006820F0A8
:100CF0000400086000BFA068A8B1FFF713FC054618
:100D000009E0FFF70FFC401B41F28831884202D90D
:100D1000032090E626E02F4868300068C0F34000CA
:100D20000028EED013E0FFF7FDFB054608E0FFF7D3
:100D3000F9FB401B41F28831884201D903207AE651
:100D4000244868300068C0F340000028EFD1012E2D
:100D500007D120483830006820F080501D493831D4
:100D6000086000BFA069E8B31A48006800F00C00F2
:100D7000082862D0A06902284AD1002016490866D6
:100D8000FFF7D0FB054606E0FFF7CCFB401B02282F
:100D900001D903204FE60F4808380068C0F34060CF
:100DA0000028F1D1D4E907010843616A40EA8111C2
:100DB0000122A06AC2EB500041EA00412C20005DF4
:100DC00041EA00613020005D41EA00700149091FDD
:100DD000086008E00838024000004742800E4742A1
:100DE000007000402BE0012016490866FFF79AFBCF
:100DF000054606E0FFF796FB401B022801D90320B9
:100E000019E611480068C0F340600028F2D016E0EF
:100E100000200C490866FFF785FB054606E0FFF752
:100E200081FB401B022801D9032004E60648006824
:100E3000C0F340600028F2D101E00120FBE5002072
:100E4000F9E500000000474200380240704700000A
:100E5000F8B504462068466820688568C5F38010A8
:100E600048B905F0010030B1C6F3801018B1204632
:100E7000216C8847F8BDC5F3400030B1C6F3C010FF
:100E800018B12046616C8847F4E7C5F3401030B9CB
:100E9000C5F3801018B9C5F3002000287CD0C6F334
:100EA000401000287DD0C5F38010F0B194F85100B7
:100EB00003280ED0606D40F00400606500BF002084
:100EC00000902068C068009020688068009000BF93
:100ED0000BE000BF002000902068C06800902068F0
:100EE0008068009000BF00BFC4E7C5F3401088B120
:100EF000606D40F00100606500BF00200090206838
:100F0000806800902068006820F040002168086038
:100F100000BF00BFC5F3002058B1606D40F008006D
:100F2000606500BF0020009020688068009000BFCE
:100F300000BF606D78B32068406820F0E000216851
:100F40004860012084F8510006F00200022802D017
:100F500006F0010008B32068406820F00300216813
:100F60004860E06C50B11048E16C0865E06CFFF738
:100F7000BDF918B1606D40F040006065A06C50B1E3
:100F80000948A16C0865A06CFFF7B0F918B1606D55
:100F900040F04000606503E003E02046FFF756FFA5
:100FA00068E700BF66E700004B17000810B504466D
:100FB0000CB9012010BD606A00B900BF0021A16218
:100FC00094F8510028B9002084F85000204600F021
:100FD00033F8022084F851002068006820F04000B7
:100FE00021680860D4E901010843E16808432169E8
:100FF000084361690843218B01F400710843E169EA
:101000000843216A0843A16A084321680860042153
:10101000A06901EA1040616A0843216848602068BD
:10102000C06920F400602168C8610020606501206B
:1010300084F851000020BDE710B586B004461421A5
:1010400001A8FFF713F934492068884262D100BF34
:10105000002000903148006840F480402F4908602B
:101060000846006800F48040009000BF00BF00BF49
:101070000020009029481038006840F004002749FB
:10108000103908600846006800F00400009000BFB6
:1010900000BF00BF002000900846006840F002003A
:1010A00008600846006800F00200009000BF00BF22
:1010B000022001900290002003900320049007205A
:1010C000059001A91648FFF725F904200190022098
:1010D000029000200390032004900520059001A9B0
:1010E0000F48FFF717F94FF480600190022002903B
:1010F00000200390032004900520059001A90948D1
:10110000FFF708F9002211462420FFF799FA24205E
:10111000FFF786FA06B010BD0038004040380240A4
:101120000008024000040240F0B504460E46154691
:101130000027A06868B96068B0F5827F09D10420F3
:1011400084F851002B4632463146204600F05CF8C8
:10115000F0BD00BF94F85000012801D10220F7E74C
:10116000012084F8500000BF94F85100012801D0FC
:10117000022733E006B10DB901272FE0042084F8DF
:10118000510000206065A663A587E5872063A086DF
:10119000E0866064E06810B11448206401E01448FF
:1011A0002064A068B0F5004F05D12068006820F4E5
:1011B0008040216808602068406840F06000216835
:1011C00048602068006800F04000402805D0206892
:1011D000006840F040002168086000BF00BF0020A8
:1011E00084F8500000BF3846B2E7000061180008DC
:1011F0008518000810B5044620210248FFF782F93F
:1012000010BD000000000240F0B50446002700BFFA
:1012100094F85000012801D10220F0BD012084F88B
:10122000500000BF94F851506668012D08D0B6F503
:10123000827F03D1A06808B9042D01D0022735E0D0
:1012400009B102B10BB9012730E094F8510004282C
:1012500002D0052084F85100002060652163A38638
:10126000E386A263A387E387E06820B11348206484
:101270001348606403E013482064134860642068E6
:10128000406840F0E000D4F800C0CCF804002068CA
:10129000006800F04000402807D02068006840F057
:1012A0004000D4F800C0CCF8000000BF00BF002010
:1012B00084F8500000BF3846AFE700006115000811
:1012C000C915000895150008FD150008704770B590
:1012D00004462546681EB0F1807F01D301200FE04F
:1012E000681E4FF0E02148610F214FF0FF3000F001
:1012F0009DFD00204FF0E02188610720086100205B
:1013000070BD10B504460CB9012010BDA06900B134
:1013100000E000BF94F8390028B9002084F83800B4
:10132000204600F027F8242084F839002068C0689F
:1013300020F400502168C860204600F079FB206846
:10134000006920F49040216808612068406920F01D
:101350002A00216848612068C06840F40050216874
:10136000C8600020E063202084F8390084F83A0047
:101370000020CAE710B586B00446142101A8FEF784
:1013800075FF1B49206888422FD100BF00200090C4
:101390001848006840F400301649086008460068A4
:1013A00000F40030009000BF00BF00BF002000909C
:1013B00010481038006840F001000E4910390860EC
:1013C0000846006800F00100009000BF00BF0C203C
:1013D0000190022002900120039003200490072036
:1013E000059001A90448FEF795FF06B010BD000066
:1013F00000440040403802400000024000BFFEE7C9
:1014000000B587B0142102A8FEF730FF00BF00200E
:1014100001902B48006840F0040029490860084604
:10142000006800F00400019000BF00BF00BF002072
:1014300001900846006840F0800008600846006897
:1014400000F08000019000BF00BF00BF00200190AD
:101450000846006840F0010008600846006800F097
:101460000100019000BF00BF00BF002001900846AE
:10147000006840F0020008600846006800F00200C2
:10148000019000BF00BF002220210E48FFF743F863
:101490004FF4005002900C4803900020049002A9E1
:1014A0000A48FEF737FF2020029001200390002019
:1014B0000490059002A90348FEF72CFF07B000BD79
:1014C00030380240000002400000211000080240B5
:1014D00010B50D480D4908600020486000210B48F8
:1014E0008160C16001610121416149028161002186
:1014F0000162416281620A21C162FFF757FD08B1B2
:10150000FEF7F3FE10BD0000003800402000002070
:1015100010B50B480B4908604FF4E13048600021DA
:1015200008488160C16001610C2141610021816135
:10153000C161FFF7E6FE08B1FEF7D7FE10BD00005F
:10154000004400407800002000BFFEE7704770476D
:1015500010B50248FFF77CFC10BD00002000002001
:1015600010B504462068C068A16B0880A06B801C81
:10157000A063E08F401EE087E08F50B9206840688C
:1015800020F0400021684860E08E10B9204600F04D
:101590004FF810BD10B504462068007BA16B0870A1
:1015A000A06B401CA063E08F401EE087E08F50B925
:1015B0002068406820F0600021684860E08E10B923
:1015C000204600F035F810BD10B50446206B0088A9
:1015D0002168C860206B801C2063E08E401EE0867E
:1015E000E08E50B92068406820F080002168486093
:1015F000E08F10B9204600F01BF810BD10B504466E
:10160000206B007821680873206B401C2063E08EFB
:10161000401EE086E08E50B92068406820F08000CF
:1016200021684860E08F10B9204600F001F810BD35
:101630007CB504462C4800681821B0FBF1F04FF44B
:101640007A71B0FBF1F0642148430190FEF76AFF24
:1016500005462068406820F020002168486000BFEF
:10166000019820B9606D40F02000606508E00198A5
:10167000401E01902068806800F002000028EFD032
:1016800000BF2A466421204600F0B4F818B1606D0E
:1016900040F020006065A06850B900BF00200090B5
:1016A0002068C068009020688068009000BF00BF7C
:1016B000606D88B994F85100042806D1012084F89F
:1016C00051002046FFF796FD0CE0012084F8510000
:1016D0002046FFF7FBFD05E0012084F8510020467D
:1016E000FFF7B4FB7CBD00001C00002038B50446A9
:1016F0002068406820F0600021684860FEF712FF13
:1017000005462A466421204600F029F818B1606D8C
:1017100040F020006065A06850B900BF0020009034
:101720002068C068009020688068009000BF00BFFB
:10173000012084F85100606D18B92046FFF75AFD6A
:1017400002E02046FFF782FB38BD70B50546AC6B62
:101750000020E087E0862046FFF778FB70BDF8B5F3
:1017600004460E4615466068B0F5827F0DD1A0682C
:10177000B0F5004F03D0A068B0F5806F05D12068A8
:10178000006820F04000216808606068B0F5827F42
:101790001FD1A068B0F5806F0DD0334600228021A4
:1017A0002046009500F080F808B3606D40F02000FE
:1017B00060650320F8BD33460022012120460095D4
:1017C00000F072F898B1606D40F020006065032071
:1017D000F0E73346002201212046009500F064F82E
:1017E00028B1606D40F0200060650320E2E7002032
:1017F000E0E700007CB504460D4616461648006832
:101800001821B0FBF1F01549B0FBF1F04FF47A71FB
:10181000484301906068B0F5827F0DD12B460022CD
:1018200080212046009600F03FF898B1606D40F0AE
:101830002000606503207CBD00BF019800B908E06E
:101840000198401E019020688068C0F3C0100028F5
:10185000F3D100BF0020EEE71C00002040420F0043
:1018600010B504462068C068A16B0880A06B801C7E
:10187000A063E08F401EE087E08F10B92046FFF79D
:1018800035FF10BD10B504462068007BA16B0870C1
:10189000A06B401CA063E08F401EE087E08F10B972
:1018A0002046FFF723FF10BD2DE9F04104460E4608
:1018B00017461D46DDF818803EE0681CD8B3FEF7D9
:1018C00031FEA0EB0800A84200D2A5BB206840680A
:1018D00020F0E000216848606068B0F5827F0DD19B
:1018E000A068B0F5004F03D0A068B0F5806F05D1B7
:1018F0002068006820F0400021680860A06AB0F508
:10190000005F0DD100BF2068006820F400502168FE
:1019100008602068006840F400502168086000BF3B
:10192000012084F8510000BF002084F8500000BF5F
:101930000320BDE8F081FFE7206880683040B042B6
:1019400001D1012000E00020B842B6D10020F0E72C
:10195000704710B5FEF7ECFD10BD000000B593B068
:10196000342106A8FEF782FC142101A8FEF77EFCB4
:1019700000BF002000902548006840F080502349B7
:1019800008600846006800F08050009000BF00BF6B
:1019900000BF002000901E48006820F4404040F442
:1019A00080401B4908600846006800F440400090F1
:1019B00000BF00BF022006900120099010200A906D
:1019C00002200C9000210D9108210E9160210F91B1
:1019D000022110911191129106A8FEF7F7FF08B1AC
:1019E000FEF783FC0F2001900220029080200390DC
:1019F0004001049000200590012101A8FEF772FE2D
:101A000008B1FEF772FC13B000BD00004038024080
:101A1000007000400548006840F470000349086009
:101A20004FF00060014980390860704788ED00E0A0
:101A30002DE9F84F04462068006920F44050E16821
:101A40000843216808612169A06808436169084367
:101A5000E169084300902068C06849F20C6188433E
:101A6000009908432168C8602068406920F44070EC
:101A7000A169084321684861E069B0F5004F75D15C
:101A8000E3492068884203D0E249206888426FD148
:101A9000FEF700FF814602206168A0FB01510B4662
:101AA0001920A9FB00712A463846FEF7A7FB6421DE
:101AB000B0FBF1F04FEA001A02206168A0FB01516F
:101AC0000B461920A9FB00712A463846FEF796FB03
:101AD000074602206168A0FB01510B461920A9FBB3
:101AE00000B12A465846FEF789FB6421B0FBF1F0AD
:101AF00000EBC00101EB0010A7EB8000322101EBED
:101B0000C0006421B0FBF1F000F0F8000AEB400ADD
:101B100002206168A0FB01510B461920A9FB00714E
:101B20002A463846FEF76AFB074602206168A0FB9A
:101B300001510B461920A9FB00B12A465846FEF771
:101B40005DFB6421B0FBF1F000EBC00101EB001084
:101B5000A7EB8000322101EBC0006421B0FBF1F063
:101B600000F007005044216888604FE16EE0FFE715
:101B7000FEF780FE814602206168A0FB01510B4602
:101B80001920A9FB00712A463846FEF737FB64216D
:101B9000B0FBF1F04FEA001A02206168A0FB01518E
:101BA0000B461920A9FB00712A463846FEF726FB92
:101BB000074602206168A0FB01510B461920A9FBD2
:101BC00000B12A465846FEF719FB6421B0FBF1F03C
:101BD00000EBC00101EB0010A7EB8000322101EB0C
:101BE000C0006421B0FBF1F000F0F8000AEB400AFD
:101BF00002206168A0FB01510B461920A9FB00716E
:101C00002A463846FEF7FAFA074602206168A0FB2A
:101C1000015003461920A9FB00B12A465846FEF799
:101C2000EDFA6421B0FBF1F000EBC00101EB001014
:101C3000A7EB8000322101EBC0006421B0FBF1F082
:101C400000F00700504421688860DFE07049206898
:101C5000884203D06F49206888426BD1FEF71AFE94
:101C6000814604206168A0FB01510B461920A9FBA5
:101C700000712A463846FEF7C1FA824604206168A0
:101C8000A0FB01510B461920A9FB00712A463846DA
:101C9000FEF7B4FA6421B0FBF1F000EBC00101EBF8
:101CA0000010AAEB8000322101EB00106421B0FB90
:101CB000F1F000F0F00A04206168A0FB0150034637
:101CC0001920A9FB00712A463846FEF797FA6421CD
:101CD000B0FBF1F00AEB001A04206168A0FB01518F
:101CE0000B461920A9FB00712A463846FEF786FAF2
:101CF000074604206168A0FB015003461920A9FB98
:101D000000B12A465846FEF779FA6421B0FBF1F09B
:101D100000EBC00101EB0010A7EB8000322101EBCA
:101D200000106421B0FBF1F000F00F005044216876
:101D300088606BE0FEF79EFD814604206168A0FB91
:101D4000015003461920A9FB00712A463846FEF7C8
:101D500055FA824604206168A0FB01500346192011
:101D6000A9FB00712A463846FEF748FA6421B0FB09
:101D7000F1F000EBC00101EB0010AAEB8000322172
:101D800001EB00106421B0FBF1F000F0F00A042038
:101D90006168A0FB015003461920A9FB00712A4687
:101DA0003846FEF72BFA6421B0FBF1F00AEB001A7B
:101DB00004206168A0FB017003461920A9FB0050B4
:101DC00001463A462846FEF719FA0746042061689C
:101DD000A0FB015003461920A9FB00B12A46584632
:101DE000FEF70CFA6421B0FBF1F000EBC00101EB4F
:101DF0000010A7EB8000322101EB00106421B0FB42
:101E0000F1F000F00F00504421688860BDE8F88FC1
:101E1000001001400014014000BFFEE702480068C6
:101E2000C0F30220704700000CED00E010B5002860
:101E300004DB0A07130E054A135406E00A07140EC2
:101E4000034A00F00F031B1FD45410BD00E400E050
:101E500018ED00E002E008C8121F08C1002AFAD1FC
:101E600070477047002001E001C1121F002AFBD11A
:101E700070470000FEF768FBFFF770FDFFF7C0FA40
:101E8000FFF726FBFFF744FB14E00B48007820B96E
:101E900001220A490A48FFF747F90A4800680A4937
:101EA000884202D900200749086006480068401CA3
:101EB00004490860E9E7000002000020010000205A
:101EC000200000200C0000208038010000000000ED
:101ED00000000000010203040607080900000000DA
:101EE00001020304041F000800000020200000007D
:101EF000541E0008241F0008200000209804000041
:101F0000641E0008D5000000000000A1A2A3A400E8
:101F100000000000000000001000000001000000B0
:041F20000024F400A5
:04000005080001C529
:00000001FF
