:020000040800F2
:1000000088040020C9000008D50D0008250D00084F
:1000100000000000000000000000000000000000E0
:10002000000000000000000000000000A91200080D
:1000300000000000000000001D0E0008AB120008C8
:10004000DB00000800000000DB000008DB00000807
:10005000DB000008DB000008DB000008DB00000814
:1000600000000000DB000008DB000008DB000008E7
:10007000DB000008DB000008DB00000800000000D7
:10008000DB000008DB00000800000000DB000008C7
:10009000DB000008DB000008DB000008DB000008D4
:1000A000DB000008210E0008DB000008DB00000870
:1000B000DB0000080348854600F03CF80048004794
:1000C000791300088804002004488047044800474A
:1000D000FEE7FEE7FEE7FEE7FEE7FEE7FD120008AB
:1000E000B500000830B50B4601460020202201244F
:1000F00009E00D46D5409D4205D31D469540491B5C
:100100002546954040191546521E002DF1DC30BDA4
:10011000D2B201E00270401C491EFBD2704700229F
:10012000F6E710B513460A4604461946FFF7F0FFF6
:10013000204610BD064C0125064E05E0E36807CCBD
:100140002B430C3C98471034B442F7D3FFF7B6FF6B
:100150007C1400089C14000870B50024234606E0B7
:10016000C55CCE5CB54201D1641CE4B25B1C934219
:10017000F6D3042C01D0002070BD012070BD70B5F5
:100180000024014620314A78022A03D004218163E9
:10019000012416E0026813680E25AB431360026861
:1001A00013685B085B0013600122056C1346AB40CB
:1001B000C56B6B604A7000220A70416B002900D049
:1001C0008847204670BD0000F8B500238DE001246B
:1001D0009C40A44622407DD04C68022C01D0122CB9
:1001E0000CD1DC08A40027183C6A5D07ED0E0F2631
:1001F000AE40B4430E69AE4026433E6205685E00E1
:100200000324B4400F79A543BF07BF0FB7402F4366
:1002100007604D68012D05D0022D03D0112D01D0AE
:10022000122D0ED18568CF68A543B7402F43876054
:1002300047686546AF430D79ED06ED0F9D403D43A0
:100240004560C568A5438C68B4402C43C4604C68C5
:10025000E40049D5284CA56901263543A561A46968
:100260009D0834400094254CAD002F19BC689D07B3
:100270002E0F0F25B540AC430925ED06A84201D14C
:1002800000250FE01E4DA84201D101250AE01D4DB9
:10029000A84201D1022505E01B4DA84201D103254A
:1002A00000E00525B5402543BD60184C25684E6823
:1002B0009543F60300D51543256065684E68954360
:1002C000B60300D515436560A5684E689543F602F0
:1002D00002D500E008E01543A560E5684E68954347
:1002E000B60200D51543E5605B1C0A681446DC4085
:1002F00000D06CE7F8BD0000001002400000014093
:100300000004004800080048000C004800040140B8
:1003100042694A4042617047002A01D081617047BA
:100320008162704701480068704700001800002093
:1003300002480168491C0160704700001800002055
:1003400010B506480168102211430160002000F03A
:1003500007F800F017F8002010BD00000020024050
:1003600010B5044600F0C6F87D21C900FFF7BAFEBB
:1003700000F0C0FC00222146501E00F021F80020B1
:1003800010BD000008B50848816901221143816150
:10039000816911400091C26901040A43C261C069C8
:1003A0000840009008BD000000100240C106C90EC0
:1003B00001208840014908607047000000E100E02A
:1003C00010B500F009FD10BDF8B5054644480E46CD
:1003D0000068C007C00FB0420AD24148016849080E
:1003E0004900314301600068C007C00FB0425CD1D2
:1003F00028783C4C800705D56068F0218843A968BF
:10040000084360602878C0073FD06868012813D08F
:100410002168022813D08907002946DA6168890813
:10042000890001436160FFF77DFF69680746012984
:100430000DD0022917D024E021688903ECE7890157
:10044000EAE7FFF76FFFC11B2748814217D86068B2
:100450000007800F0128F4D117E0FFF763FFC11BED
:10046000214881420BD860680007800F0228F4D130
:100470000BE0FFF757FFC11B1B48814201D9032046
:10048000F8BD60680007800FF3D115480168C907FF
:10049000C90FB1420BD901684908490031430160D5
:1004A0000068C007C00FB04201D00120F8BD287815
:1004B000400706D56068072109028843E9680843B8
:1004C000606000F01DF86168084A0906090F515C78
:1004D000C840074908600020FFF742FF0020F8BD30
:1004E0000020024000100240881300006C14000835
:1004F0001C00002001480068704700001C0000201C
:1005000010B512A30FCB88B06C460FC413A30FCB4A
:100510000FC416494A680C20134603401448042BA4
:100520000FD0082B0DD193021B0F6C46E45CC96AF7
:1005300004AB0907090F595CD20304D5FFF7D2FDBC
:10054000604308B010BD0B486043FAE7020304059E
:10055000060708090A0B0C0D0E0F10100102030408
:1005600005060708090A0B0C0D0E0F1000100240BB
:1005700000127A0000093D00FEB504460078D04D17
:10058000C00747D068680007800F012807D0686857
:100590000007800F022809D16868C00306D52868C3
:1005A000800337D5606800287ED033E00120626880
:1005B0000004012A11D08100002A01D0052A10D0A0
:1005C0002A6882432A602868884328606068002877
:1005D00014D0FFF7A7FE06460CE029680143296006
:1005E000F4E72A680A432A60F7E7FFF79BFE801BBF
:1005F00064286FD828688003F7D50BE0FFF792FED8
:10060000064604E0FFF78EFE801B6428F1D82868B8
:100610008003F7D420780126800700283BDA686839
:100620000007800F07D068680007800F022809D1F3
:100630006868C00306D42868800715D5E0680128DB
:1006400032D111E0E0680028286815D030432860D6
:10065000FFF768FE074604E0FFF764FEC01B0228B0
:10066000C7D828688007F7D52868F821884321690A
:10067000C900084328600EE0400840002860FFF7EA
:1006800051FE074604E0FFF74DFEC01B0228B0D81C
:1006900028688007F7D42078000724D5E06900286F
:1006A000686A10D0304300E008E16862FFF73AFE64
:1006B000074604E0FFF736FEC01B022899D8686A97
:1006C0008007F7D50FE0400840006862FFF72AFE78
:1006D000074605E09DE0FFF725FEC01B022888D8ED
:1006E000686A8007F7D4207804274007002860DA7A
:1006F00000200190E869C00008D4E969B806014308
:10070000E961E96901400120009101906D480168AB
:10071000C90511D40168821511430160FFF702FE7B
:10072000009005E0FFF7FEFD0099401A642870D89C
:1007300064480068C005F5D5A06801280AD00028E3
:1007400001D0052810D0286A400840002862286A95
:10075000B84301E0286A30432862A068002812D01C
:10076000FFF7E0FD00900AE0286A38432862F1E7CD
:10077000FFF7D8FD0099411A5348814249D8286AA9
:100780008007F5D50DE0FFF7CDFD009006E0FFF7FF
:10079000C9FD0099411A4C4881423AD8286A80071D
:1007A000F5D40198002804D0E969012000078143AD
:1007B000E9612078C00635D5606901280CD0401D5C
:1007C000686B23D038436863686B400840006863F7
:1007D000FFF7A8FD064622E0686B38436863686B44
:1007E00030436863FFF79EFD064604E0FFF79AFD7D
:1007F000801B02285BD8686B8007F7D5686BF821EF
:100800008843A169C900084368630BE0B843686383
:10081000F4E74CE0FFF786FD801B022847D8686BA1
:100820008007F7D4206A002846D069680907890F35
:10083000022943D0012636060228286805D0B04395
:100840002860FFF76FFD044633E0B0432860FFF7F0
:1008500069FD074604E0FFF765FDC01B022826D8A6
:1008600028688001F7D4E86AE16A000900010843BA
:10087000E862616AA06A084369683D2212049143F4
:1008800008436860286830432860FFF74BFD044642
:1008900004E0FFF747FD001B022808D82868800104
:1008A000F7D509E0FFF73EFD001B022801D9032020
:1008B000FEBD28688001F5D40020FEBD0120FEBDEC
:1008C00000100240007000408813000070470000D4
:1008D000F8B504460068426881684B0605D4CB072A
:1008E00003D0530601D5E16C04E08B0705D5130650
:1008F00003D5216D20468847F8BDFF236133194297
:10090000FAD09306F8D523464D064033002D09DA78
:100910005D7F032D3CD0256E042635432566C568D2
:10092000856800958E060125002E08DA266E2E4376
:1009300026668668009606684027BE430660C8059E
:1009400006D5206E08210843206620688068009044
:10095000206E0028D0D020684168E026B143416075
:100960005D77900718D02068416889088900416048
:10097000A06D0B4D002803D04563A06DFFF7FFFB72
:10098000606D0028B8D04563606DFFF7F8FBF8BDD7
:10099000C16880680090F8BD2046FFF797FFF8BD5A
:1009A00025100008F8B5040007D00026254640357C
:1009B000A662687F002802D005E00120F8BD2E77EE
:1009C000204600F04BF802236B7720680168402234
:1009D000914301600721E0680902884201D90022A1
:1009E00001E0012212030F273F02B84202D08842E1
:1009F00000D0A662276B002F05D1884201D923635E
:100A000001E001202063A1686068636908432169EF
:100A1000194308430123A1695B0219400843E169B6
:100A20000843216A0843A16A084321680860616B92
:100A3000606AA36908431B0C0427E1683B40194323
:100A400008432168104348602068C1697A029143D5
:100A5000C1612666012068770020F8BD10B586B018
:100A6000044614216846FFF75AFB1549206888425E
:100A700024D11448826981140A43826182690A4040
:100A80000592426949010A43426140690840059064
:100A9000E0200090022001900021032003900291A9
:100AA000049109206946C006FFF78EFB002211461B
:100AB0001920FFF785FC1920FFF778FC06B010BD60
:100AC0000030014000100240F0B513460246846831
:100AD00000254032C668002C03D14468E71FFD3F63
:100AE0000AD0147F012C0DD001241477577F0024E5
:100AF000012F09D002253EE0042454770A4600F075
:100B000043F8F0BD0220F0BD002916D0002B14D010
:100B100004275777046601649380D38084638487B5
:100B2000C48707231B02B90204659E4203685E68FE
:100B300005D98E435E60114904E001251BE00E4398
:100B40005E600F49C16401238168DB03994205D1CE
:100B500001680B680126B603B3430B6001684B685C
:100B6000602633434B6000680168490603D401687E
:100B700040231943016014772846F0BDFB1000089C
:100B80002111000870470000F0B504468C4640343F
:100B9000217F0025C768964601290CD001212177C5
:100BA000667F4168012E0CD0CA1FFD3A07D18168CB
:100BB000002904D101E00220F0BD042E01D002255D
:100BC00040E0614600291BD07146002918D0002B57
:100BD00016D0617F042901D00521617700210166CB
:100BE000614681638387C38771460164A380E38084
:100BF000072109028F4205D9144AC264144A04E04D
:100C000001251FE0134AC264134A02650122120340
:100C10008F4202D8E188022903D301684B689343CD
:100C200002E001684B6813434B6001684A68E023A7
:100C30001A434A6000680168490603D401684022EB
:100C400011430160002020772846F0BD310E0008D6
:100C5000C50E0008670E0008F90E0008F0B503463F
:100C600040331C7F0025C668012C0BD001241C7763
:100C70000024002908D0002A06D05F7F012F05D06C
:100C800002252DE00220F0BD012529E003275F7732
:100C9000046681638287C28704649C80DC800721AC
:100CA0000902C4648E4201D90F4900E00F49016571
:100CB00001228168D203914205D101680A680126A8
:100CC000B60332430A6001684A68A02632434A608C
:100CD00000680168490603D401684022114301609D
:100CE0001C772846F0BD0000451100086711000878
:100CF00070477047094910B5401E884201D901204C
:100D000010BD074C60610321081F00F065F800204A
:100D1000A06107202061002010BD0000FFFFFF0040
:100D200000E000E0FEE70000F0B587B0142168465F
:100D3000FFF7F5F915484269012149040A43426168
:100D400042690A400592426989000A43426140694A
:100D5000032608400E4F36020590002231463846E1
:100D6000FFF7DAFA0B480125002401906946009547
:100D700002948002FFF728FA0294694638460096EA
:100D800001950394FFF720FA07B0F0BD0010024070
:100D9000000800480000121010B50D480B49016012
:100DA00000214160072212028160C26001610122BC
:100DB00042610162520241628261816207220163E3
:100DC000C2624163FFF7EEFD10BD0000003001403C
:100DD00020000020704700008307FF22DB0E9A40AE
:100DE0008907090E994000280BDA0007000F083820
:100DF000830808489B001818C36993430B43C361D9
:100E00007047830804489B001B18186890430843E8
:100E10001860704700ED00E000E400E0704700005B
:100E200010B50248FFF754FD10BD0000200000205F
:100E300010B50168C968026C1180016C891C0164DD
:100E400001464031CA88521ECA80C988002909D18A
:100E500001684A6840239A434A60C18F002901D142
:100E600000F06EF810BD10B501464031CC88036823
:100E7000026C012C11D9DB681380026C921C026495
:100E8000CA88921ECA80CA88012A0DD10268536896
:100E9000012424032343536006E01C7B531C03649A
:100EA0001470CA88521ECA80C988002909D10168F5
:100EB0004A6860239A434A60C18F002901D100F03B
:100EC0003FF810BD10B5816B02680988D160816B55
:100ED000891C8163C18F491EC187C18F00290AD136
:100EE00001684A6880239A434A604621095A0029CA
:100EF00001D100F025F810BD10B5C38F0268816BD9
:100F0000022B07D30988D160816B891C8163C18F53
:100F1000891E05E04B1C836309781173C18F491E3C
:100F2000C187C18F00290AD101684A6880239A438A
:100F30004A604621095A002901D100F001F810BD8C
:100F400070B50446FFF7EEF9024620684168202597
:100F5000A94341606421204600F0A9F8002802D08E
:100F6000206E28432066226E204601214030002A50
:100F700004D041772046FFF7A9FC70BD427F41773E
:100F8000042A204602D0FFF7B4FE70BDFFF7FAFD39
:100F900070BD10B50446006841686022914341600D
:100FA000FFF7C0F902466421204600F044F800280B
:100FB00003D0206E20210843206601215D200155C9
:100FC000206E0028204602D0FFF780FC10BDFFF7FE
:100FD000D9FD10BD38B50446FFF7A4F902462068D4
:100FE0004168A023994341606421204600F05FF8E6
:100FF000002803D0206E202108432066A068002826
:1010000003D12068C1688068009001215D200155EE
:10101000206E0028204602D0FFF758FC38BDFFF7AD
:1010200067FE38BD10B5406A002146221152C187C3
:10103000FFF74CFC10BDF7B504464068FF260536A7
:1010400082B01546B0420CD10121A068C903884284
:1010500002D04911884204D120680168402291439E
:1010600001600095002280212046039B00F0D6F805
:101070002027002813D16068B04216D1A068B902B9
:10108000884202D0491188420FD1032100950022E5
:1010900049022046039B00F076F8002805D0206E18
:1010A00038432066032005B0F0BD0020FBE7F8B50B
:1010B0000F460B4615460092032104460022C90242
:1010C00000F061F82026002812D13B460022802142
:1010D0002046009500F0A2F8002809D103213B46E4
:1010E000002249022046009500F04DF8002803D068
:1010F000206E304320660320F8BD10B50168C96832
:10110000026C1180016C891C016401464031CA885F
:10111000521ECA80C988002901D1FFF73AFF10BDCD
:1011200010B501680B7B016C4A1C02640B70014610
:101130004031CA88521ECA80C988002901D1FFF7F0
:1011400028FF10BD10B5816B02680988D160816BE2
:10115000891C8163C18F491EC187C18F002901D1BC
:10116000FFF738FF10BD10B5816B4A1C826302681F
:1011700009781173C18F491EC187C18F002901D120
:10118000FFF728FF10BDF8B51D4617460E4604466A
:101190003DE0032149028E4205D1002F03D1017B9E
:1011A000684601700078681C31D0002D05D0FFF72B
:1011B000B9F80699401AA84229D320684168E0226C
:1011C000914341606068C11FFD390CD10121A068C5
:1011D000C903884202D04911884204D120680168BD
:1011E0004022914301600120A16A4003814207D15E
:1011F00021680A6882430A6021680A6802430A601B
:10120000012040346077002020770320F8BD20685B
:1012100081683140B942BCD10020F8BDF8B51D4607
:1012200017460E46044633E0681C31D0002D05D029
:10123000FFF778F80699401AA84229D32068416838
:10124000E022914341606068C11FFD390CD101214A
:10125000A068C903884202D04911884204D120689D
:1012600001684022914301600120A16A400381424C
:1012700007D121680A6882430A6021680A6802432C
:101280000A60012040346077002020770320F8BDF9
:10129000206881683046884304D00020B842C3D11A
:1012A0000020F8BD0120F9E7704710B5FFF740F8BE
:1012B00010BD30B591B030216846FEF730FF0024F4
:1012C0000D94012003900E9402251020099404909F
:1012D000009505200F94C0040A900C9408950B9477
:1012E0006846FFF749F907200C900E9401210D95EF
:1012F0000F940CA8FFF768F811B030BD13480168CF
:101300000122114301604168114A114041600168A6
:10131000104A11400160016801229204914301606A
:1013200041683F22120491434160C16A09090901E1
:10133000C162016BFF22143291430163416B490882
:1013400049004163002181607047000000100240A5
:101350000CB8FF08FFFFF6FE02E008C8121F08C124
:10136000002AFAD170477047002001E001C1121F26
:10137000002AFBD170470000FEF7E2FFFFF799FF5C
:10138000FFF7D2FCFFF708FD0127354E354C364DEF
:101390007F0239463046FEF7BBFF687F0128FCD14B
:1013A000304931480222891D4038FFF78DFB687FA4
:1013B0000128FCD12B48801D4178007809020818CB
:1013C00080B220812188884202D06188884214D16D
:1013D000244925480222091D4038FFF73FFC687F59
:1013E0000128FCD1010201223046FEF795FF0122BF
:1013F00039463046FEF790FF04E0FF2101313046C8
:10140000FEF786FF20892188884219D115491648A0
:10141000042212314038FFF757FB687F0128FCD1C6
:10142000104904220E31081DFEF796FE002802D056
:101430000122110201E0012239463046FEF76CFF1D
:10144000208961888842A4D10649074804220A31CC
:101450004038FFF703FC687F0128FCD199E70000C2
:10146000000800480000002060000020000000008C
:101470000000000001020304060708099C1400088C
:10148000000000202000000058130008BC140008D1
:10149000200000206804000068130008B1AAB2AA66
:1014A000D5E500000000B1B2B3B4A1A2A3A400002E
:0C14B000000000000000000000127A00A4
:04000005080000B53A
:00000001FF
