:020000040800F2
:1000000008040020C9000008610900087108000800
:1000100000000000000000000000000000000000E0
:10002000000000000000000000000000AB09000814
:100030000000000000000000A9090008AD09000848
:10004000DB00000800000000DB000008DB00000807
:10005000DB000008DB000008DB000008DB00000814
:1000600000000000DB000008DB000008DB000008E7
:10007000DB000008DB000008DB00000800000000D7
:10008000DB000008DB00000800000000DB000008C7
:10009000DB000008DB000008DB000008DB000008D4
:1000A000DB000008DB000008DB000008DB000008C4
:1000B000DB0000080348854600F03CF80048004794
:1000C0007B0A0008080400200448804704480047D1
:1000D000FEE7FEE7FEE7FEE7FEE7FEE7010A0008AF
:1000E000B500000830B50B4601460020202201244F
:1000F00009E00D46D5409D4205D31D469540491B5C
:100100002546954040191546521E002DF1DC30BDA4
:10011000D2B201E00270401C491EFBD2704700229F
:10012000F6E710B513460A4604461946FFF7F0FFF6
:10013000204610BD064C0125064E05E0E36807CCBD
:100140002B430C3C98471034B442F7D3FFF7B6FF6B
:10015000A40A0008C40A0008F8B500238DE00124B1
:100160009C40A44622407DD04C68022C01D0122C29
:100170000CD1DC08A40027183C6A5D07ED0E0F26A1
:10018000AE40B4430E69AE4026433E6205685E0051
:100190000324B4400F79A543BF07BF0FB7402F43D7
:1001A00007604D68012D05D0022D03D0112D01D01F
:1001B000122D0ED18568CF68A543B7402F438760C5
:1001C00047686546AF430D79ED06ED0F9D403D4311
:1001D0004560C568A5438C68B4402C43C4604C6836
:1001E000E40049D5284CA56901263543A561A469D9
:1001F0009D0834400094254CAD002F19BC689D0724
:100200002E0F0F25B540AC430925ED06A84201D1BC
:1002100000250FE01E4DA84201D101250AE01D4D29
:10022000A84201D1022505E01B4DA84201D10325BA
:1002300000E00525B5402543BD60184C25684E6893
:100240009543F60300D51543256065684E689543D0
:10025000B60300D515436560A5684E689543F60260
:1002600002D500E008E01543A560E5684E689543B7
:10027000B60200D51543E5605B1C0A681446DC40F5
:1002800000D06CE7F8BD0000001002400000014003
:100290000004004800080048000C00480004014029
:1002A000002A01D08161704781627047014800686F
:1002B000704700000000002002480168491C0160EE
:1002C000704700000000002010B5064801681022A9
:1002D00011430160002000F007F800F017F800203B
:1002E00010BD00000020024010B5044600F0BCF82C
:1002F0007D21C900FFF7F6FE00F0A2FA0022214698
:10030000501E00F017F8002010BD000008B5084886
:100310008169012211438161816911400091C269A3
:1003200001040A43C261C0690840009008BD000092
:100330000010024010B500F015FB10BDF8B50546E1
:1003400044480E460068C007C00FB0420AD2414878
:10035000016849084900314301600068C007C00FC7
:10036000B0425CD128783C4C800705D56068F0210C
:100370008843A968084360602878C0073FD0686850
:10038000012813D02168022813D08907002946DAF2
:1003900061688908890001436160FFF787FF696828
:1003A000074601290DD0022917D024E021688903CE
:1003B000ECE78901EAE7FFF779FFC11B2748814293
:1003C00017D860680007800F0128F4D117E0FFF705
:1003D0006DFFC11B214881420BD860680007800F68
:1003E0000228F4D10BE0FFF761FFC11B1B488142DB
:1003F00001D90320F8BD60680007800FF3D11548CC
:100400000168C907C90FB1420BD901684908490001
:10041000314301600068C007C00FB04201D0012025
:10042000F8BD2878400706D560680721090288438F
:10043000E9680843606000F01DF86168084A090631
:10044000090F515CC840074908600020FFF74CFFC6
:100450000020F8BD00200240001002408813000078
:10046000940A00080400002001480068704700005A
:100470000400002010B512A30FCB88B06C460FC447
:1004800013A30FCB0FC416494A680C201346034030
:100490001448042B0FD0082B0DD193021B0F6C4670
:1004A000E45CC96A04AB0907090F595CD20304D59F
:1004B000FFF718FE604308B010BD0B486043FAE731
:1004C00002030405060708090A0B0C0D0E0F101095
:1004D0000102030405060708090A0B0C0D0E0F1094
:1004E0000010024000127A0000093D00FEB50446EB
:1004F0000078D04DC00747D068680007800F0128FA
:1005000007D068680007800F022809D16868C00317
:1005100006D52868800337D5606800287ED033E090
:10052000012062680004012A11D08100002A01D054
:10053000052A10D02A6882432A60286888432860E8
:100540006068002814D0FFF7B1FE06460CE0296869
:1005500001432960F4E72A680A432A60F7E7FFF7B6
:10056000A5FE801B64286FD828688003F7D50BE0B0
:10057000FFF79CFE064604E0FFF798FE801B642808
:10058000F1D828688003F7D4207801268007002856
:100590003BDA68680007800F07D068680007800FA3
:1005A000022809D16868C00306D42868800715D5D9
:1005B000E068012832D111E0E0680028286815D0F1
:1005C00030432860FFF772FE074604E0FFF76EFE37
:1005D000C01B0228C7D828688007F7D52868F821EB
:1005E00088432169C900084328600EE040084000A4
:1005F0002860FFF75BFE074604E0FFF757FEC01BCD
:100600000228B0D828688007F7D42078000724D5BE
:10061000E0690028686A10D0304300E008E16862B1
:10062000FFF744FE074604E0FFF740FEC01B022828
:1006300099D8686A8007F7D50FE0400840006862E3
:10064000FFF734FE074605E09DE0FFF72FFEC01BD5
:10065000022888D8686A8007F7D4207804274007E2
:10066000002860DA00200190E869C00008D4E96938
:10067000B8060143E961E969014001200091019058
:100680006D480168C90511D40168821511430160E4
:10069000FFF70CFE009005E0FFF708FE0099401AF6
:1006A000642870D864480068C005F5D5A0680128A2
:1006B0000AD0002801D0052810D0286A4008400040
:1006C0002862286AB84301E0286A30432862A0689B
:1006D000002812D0FFF7EAFD00900AE0286A3843AC
:1006E0002862F1E7FFF7E2FD0099411A5348814281
:1006F00049D8286A8007F5D50DE0FFF7D7FD0090AF
:1007000006E0FFF7D3FD0099411A4C4881423AD8E0
:10071000286A8007F5D40198002804D0E9690120EF
:1007200000078143E9612078C00635D5606901285A
:100730000CD0401D686B23D038436863686B400859
:1007400040006863FFF7B2FD064622E0686B38435D
:100750006863686B30436863FFF7A8FD064604E0F2
:10076000FFF7A4FD801B02285BD8686B8007F7D5D4
:10077000686BF8218843A169C900084368630BE0EE
:10078000B8436863F4E74CE0FFF790FD801B022854
:1007900047D8686B8007F7D4206A002846D069687C
:1007A0000907890F022943D0012636060228286846
:1007B00005D0B0432860FFF779FD044633E0B0432D
:1007C0002860FFF773FD074604E0FFF76FFDC01BCD
:1007D000022826D828688001F7D4E86AE16A00096F
:1007E00000010843E862616AA06A084369683D2223
:1007F0001204914308436860286830432860FFF77B
:1008000055FD044604E0FFF751FD001B022808D8FF
:1008100028688001F7D509E0FFF748FD001B022892
:1008200001D90320FEBD28688001F5D40020FEBD5B
:100830000120FEBD0010024000700040881300003F
:10084000094910B5401E884201D9012010BD074C4E
:1008500060610321081F00F085F80020A0610720D7
:100860002061002010BD0000FFFFFF0000E000E05D
:10087000FEE70000F0B587B014216846FFF74FFC93
:1008800032484269012149040A43426142690A40EF
:100890000592426949010A43426142690A40059250
:1008A0004269C9100A43426142690A40059242699D
:1008B00049100A434261406909270840FF06059034
:1008C0000022F8213846FFF7EBFC002230212048B7
:1008D000FFF7E6FC33263601002231461D48FFF7BC
:1008E000DFFC002207211C48FFF7DAFC1B4801252A
:1008F000002401906946009502943846FFF72CFCCD
:10090000F820009002946946019503943846FFF759
:1009100023FC3020009002946946019503940C4812
:10092000FFF71AFC029469460A4800960195039461
:10093000FFF712FC0720009002946946019503948A
:100940000548FFF709FC07B0F0BD000000100240A9
:10095000001400480008004800040048000012107D
:10096000704700008307FF22DB0E9A408907090EBB
:10097000994000280BDA0007000F08388308084860
:100980009B001818C36993430B43C36170478308E6
:1009900004489B001B181868904308431860704770
:1009A00000ED00E000E400E07047704710B5FFF78D
:1009B00083FC10BD30B591B030216846FFF7AFFB26
:1009C00000240D94012003900E9402251020099418
:1009D0000490009505200F94C0040A900C9408958B
:1009E0000B946846FFF782FD07200C900E940121BE
:1009F0000D950F940CA8FFF7A1FC11B030BD0000BD
:100A0000134801680122114301604168114A1140F5
:100A100041600168104A114001600168012292049E
:100A20009143016041683F22120491434160C16AD1
:100A300009090901C162016BFF221432914301636C
:100A4000416B490849004163002181607047000003
:100A5000001002400CB8FF08FFFFF6FE02E008C8D5
:100A6000121F08C1002AFAD170477047002001E028
:100A700001C1121F002AFBD17047FFF725FCFFF7C9
:100A800099FFFFF7F7FE09200122F021C006FFF7CA
:100A900007FCFEE700000000000000000102030464
:100AA00006070809C40A000800000020080000002A
:100AB0005C0A0008CC0A00080800002000040000BE
:0C0AC0006C0A00080000000000127A0020
:04000005080000B53A
:00000001FF
